{
  "_format": "hh-sol-artifact-1",
  "contractName": "RentContractFactory",
  "sourceName": "contracts/RentContractFactory.sol",
  "abi": [
    {
      "inputs": [
        {
          "internalType": "address",
          "name": "_implementation",
          "type": "address"
        }
      ],
      "stateMutability": "nonpayable",
      "type": "constructor"
    },
    {
      "inputs": [],
      "name": "FailedDeployment",
      "type": "error"
    },
    {
      "inputs": [
        {
          "internalType": "uint256",
          "name": "balance",
          "type": "uint256"
        },
        {
          "internalType": "uint256",
          "name": "needed",
          "type": "uint256"
        }
      ],
      "name": "InsufficientBalance",
      "type": "error"
    },
    {
      "anonymous": false,
      "inputs": [
        {
          "indexed": false,
          "internalType": "address",
          "name": "cloneAddress",
          "type": "address"
        }
      ],
      "name": "CloneCreated",
      "type": "event"
    },
    {
      "anonymous": false,
      "inputs": [
        {
          "indexed": false,
          "internalType": "address",
          "name": "contractAddress",
          "type": "address"
        },
        {
          "indexed": false,
          "internalType": "address",
          "name": "renter",
          "type": "address"
        },
        {
          "indexed": false,
          "internalType": "address",
          "name": "company",
          "type": "address"
        }
      ],
      "name": "ContractCreated",
      "type": "event"
    },
    {
      "anonymous": false,
      "inputs": [
        {
          "indexed": false,
          "internalType": "address",
          "name": "deployer",
          "type": "address"
        },
        {
          "indexed": false,
          "internalType": "address",
          "name": "implementationAddress",
          "type": "address"
        }
      ],
      "name": "FactoryDeployed",
      "type": "event"
    },
    {
      "anonymous": false,
      "inputs": [
        {
          "indexed": false,
          "internalType": "bool",
          "name": "success",
          "type": "bool"
        }
      ],
      "name": "InitCalled",
      "type": "event"
    },
    {
      "inputs": [
        {
          "internalType": "uint256",
          "name": "",
          "type": "uint256"
        }
      ],
      "name": "allContracts",
      "outputs": [
        {
          "internalType": "contract RentContract",
          "name": "",
          "type": "address"
        }
      ],
      "stateMutability": "view",
      "type": "function"
    },
    {
      "inputs": [
        {
          "internalType": "address",
          "name": "",
          "type": "address"
        },
        {
          "internalType": "uint256",
          "name": "",
          "type": "uint256"
        }
      ],
      "name": "contractsByCompany",
      "outputs": [
        {
          "internalType": "contract RentContract",
          "name": "",
          "type": "address"
        }
      ],
      "stateMutability": "view",
      "type": "function"
    },
    {
      "inputs": [
        {
          "internalType": "address",
          "name": "",
          "type": "address"
        },
        {
          "internalType": "uint256",
          "name": "",
          "type": "uint256"
        }
      ],
      "name": "contractsByRenter",
      "outputs": [
        {
          "internalType": "contract RentContract",
          "name": "",
          "type": "address"
        }
      ],
      "stateMutability": "view",
      "type": "function"
    },
    {
      "inputs": [
        {
          "internalType": "address",
          "name": "_renter",
          "type": "address"
        },
        {
          "internalType": "address",
          "name": "_company",
          "type": "address"
        },
        {
          "internalType": "uint256",
          "name": "_deposit",
          "type": "uint256"
        },
        {
          "internalType": "uint256",
          "name": "_rentAmount",
          "type": "uint256"
        },
        {
          "internalType": "uint256",
          "name": "_startTime",
          "type": "uint256"
        },
        {
          "internalType": "uint256",
          "name": "_endTime",
          "type": "uint256"
        },
        {
          "internalType": "uint256",
          "name": "_unlockDelayHours",
          "type": "uint256"
        }
      ],
      "name": "createRentContract",
      "outputs": [
        {
          "internalType": "address",
          "name": "",
          "type": "address"
        }
      ],
      "stateMutability": "payable",
      "type": "function"
    },
    {
      "inputs": [],
      "name": "getAllContracts",
      "outputs": [
        {
          "internalType": "contract RentContract[]",
          "name": "",
          "type": "address[]"
        }
      ],
      "stateMutability": "view",
      "type": "function"
    },
    {
      "inputs": [
        {
          "internalType": "address",
          "name": "company",
          "type": "address"
        }
      ],
      "name": "getContractsByCompany",
      "outputs": [
        {
          "internalType": "contract RentContract[]",
          "name": "",
          "type": "address[]"
        }
      ],
      "stateMutability": "view",
      "type": "function"
    },
    {
      "inputs": [
        {
          "internalType": "address",
          "name": "renter",
          "type": "address"
        }
      ],
      "name": "getContractsByRenter",
      "outputs": [
        {
          "internalType": "contract RentContract[]",
          "name": "",
          "type": "address[]"
        }
      ],
      "stateMutability": "view",
      "type": "function"
    },
    {
      "inputs": [],
      "name": "implementation",
      "outputs": [
        {
          "internalType": "address",
          "name": "",
          "type": "address"
        }
      ],
      "stateMutability": "view",
      "type": "function"
    },
    {
      "inputs": [],
      "name": "owner",
      "outputs": [
        {
          "internalType": "address",
          "name": "",
          "type": "address"
        }
      ],
      "stateMutability": "view",
      "type": "function"
    }
  ],
  "bytecode": "0x608060405234801561001057600080fd5b506040516109a63803806109a683398101604081905261002f9161009a565b600080546001600160a01b031990811633908117909255600180546001600160a01b0385169216821790556040805192835260208301919091527ff96fae1c85039df437ec1af96b53627ef4b8de60de364b148c795c4b0ccb2361910160405180910390a1506100ca565b6000602082840312156100ac57600080fd5b81516001600160a01b03811681146100c357600080fd5b9392505050565b6108cd806100d96000396000f3fe6080604052600436106100865760003560e01c806375b1d0e31161005957806375b1d0e31461012e5780638da5cb5b1461014e578063b16b26b81461016e578063b6f50f9b14610181578063e54e26b9146101a157600080fd5b806318d3ce961461008b5780633ef6f90e146100b65780635797047c146100ee5780635c60da1b1461010e575b600080fd5b34801561009757600080fd5b506100a06101c1565b6040516100ad919061071b565b60405180910390f35b3480156100c257600080fd5b506100d66100d1366004610784565b610223565b6040516001600160a01b0390911681526020016100ad565b3480156100fa57600080fd5b506100d6610109366004610784565b61025b565b34801561011a57600080fd5b506001546100d6906001600160a01b031681565b34801561013a57600080fd5b506100a06101493660046107ae565b610277565b34801561015a57600080fd5b506000546100d6906001600160a01b031681565b6100d661017c3660046107d0565b6102ed565b34801561018d57600080fd5b506100a061019c3660046107ae565b6105d4565b3480156101ad57600080fd5b506100d66101bc36600461082e565b610648565b6060600280548060200260200160405190810160405280929190818152602001828054801561021957602002820191906000526020600020905b81546001600160a01b031681526001909101906020018083116101fb575b5050505050905090565b6003602052816000526040600020818154811061023f57600080fd5b6000918252602090912001546001600160a01b03169150829050565b6004602052816000526040600020818154811061023f57600080fd5b6001600160a01b0381166000908152600360209081526040918290208054835181840281018401909452808452606093928301828280156102e157602002820191906000526020600020905b81546001600160a01b031681526001909101906020018083116102c3575b50505050509050919050565b60006102f98587610847565b341461033e5760405162461bcd60e51b815260206004820152600f60248201526e496e636f72726563742076616c756560881b60448201526064015b60405180910390fd5b600154600090610356906001600160a01b0316610672565b6040516001600160a01b03821681529091507fbe2f3d28fdeb5839123d65fd47ec2f5915c715d2b527b9e229123706fdecfc859060200160405180910390a16040516001600160a01b038a811660248301528981166044830152606482018990526084820188905260a4820187905260c4820186905260e482018590526000919083169034906101040160408051601f198184030181529181526020820180516001600160e01b03166376dfa56160e11b179052516104159190610868565b60006040518083038185875af1925050503d8060008114610452576040519150601f19603f3d011682016040523d82523d6000602084013e610457565b606091505b505090507f97e57290c969d9bdd8ae33778c99de10bb998dc1e1f9173567b40720be8179028160405161048e911515815260200190565b60405180910390a1806104d15760405162461bcd60e51b815260206004820152600b60248201526a125b9a5d0819985a5b195960aa1b6044820152606401610335565b6002805460018181019092557f405787fa12a823e0f2b7631cc41b3ba8828b3321ca811111fa75cd3aa3bb5ace0180546001600160a01b038086166001600160a01b031992831681179093558d8116600090815260036020908152604080832080548089018255908452828420018054861687179055928f168252600481528282208054968701815582529020909301805490911690911790555182907f1202c61d7d89c76ba1493b085733ede04e071a2a76bb0fbae1345f128fe8b29d906105bd9083908e908e906001600160a01b0393841681529183166020830152909116604082015260600190565b60405180910390a150909998505050505050505050565b6001600160a01b0381166000908152600460209081526040918290208054835181840281018401909452808452606093928301828280156102e1576020028201919060005260206000209081546001600160a01b031681526001909101906020018083116102c35750505050509050919050565b6002818154811061065857600080fd5b6000918252602090912001546001600160a01b0316905081565b600061067f826000610685565b92915050565b6000814710156106b15760405163cf47918160e01b815247600482015260248101839052604401610335565b763d602d80600a3d3981f3363d3d373d3d3d363d730000008360601b60e81c176000526e5af43d82803e903d91602b57fd5bf38360781b176020526037600983f090506001600160a01b03811661067f5760405163b06ebf3d60e01b815260040160405180910390fd5b6020808252825182820181905260009190848201906040850190845b8181101561075c5783516001600160a01b031683529284019291840191600101610737565b50909695505050505050565b80356001600160a01b038116811461077f57600080fd5b919050565b6000806040838503121561079757600080fd5b6107a083610768565b946020939093013593505050565b6000602082840312156107c057600080fd5b6107c982610768565b9392505050565b600080600080600080600060e0888a0312156107eb57600080fd5b6107f488610768565b965061080260208901610768565b96999698505050506040850135946060810135946080820135945060a0820135935060c0909101359150565b60006020828403121561084057600080fd5b5035919050565b8082018082111561067f57634e487b7160e01b600052601160045260246000fd5b6000825160005b81811015610889576020818601810151858301520161086f565b50600092019182525091905056fea26469706673582212200a3a889ed25972a52db2bc21ddd22f82ae6f29323c7fd35c3beb9b18c4f1e46664736f6c63430008140033",
  "linkReferences": {},
  "deployedLinkReferences": {}
}