{
  "_format": "hh-sol-artifact-1",
  "contractName": "RentContractFactory",
  "sourceName": "contracts/RentContractFactory.sol",
  "abi": [
    {
      "inputs": [],
      "stateMutability": "nonpayable",
      "type": "constructor"
    },
    {
      "anonymous": false,
      "inputs": [
        {
          "indexed": false,
          "internalType": "address",
          "name": "contractAddress",
          "type": "address"
        },
        {
          "indexed": false,
          "internalType": "address",
          "name": "renter",
          "type": "address"
        },
        {
          "indexed": false,
          "internalType": "address",
          "name": "company",
          "type": "address"
        }
      ],
      "name": "ContractCreated",
      "type": "event"
    },
    {
      "inputs": [
        {
          "internalType": "uint256",
          "name": "",
          "type": "uint256"
        }
      ],
      "name": "allContracts",
      "outputs": [
        {
          "internalType": "contract RentContract",
          "name": "",
          "type": "address"
        }
      ],
      "stateMutability": "view",
      "type": "function"
    },
    {
      "inputs": [
        {
          "internalType": "address",
          "name": "",
          "type": "address"
        },
        {
          "internalType": "uint256",
          "name": "",
          "type": "uint256"
        }
      ],
      "name": "contractsByCompany",
      "outputs": [
        {
          "internalType": "contract RentContract",
          "name": "",
          "type": "address"
        }
      ],
      "stateMutability": "view",
      "type": "function"
    },
    {
      "inputs": [
        {
          "internalType": "address",
          "name": "",
          "type": "address"
        },
        {
          "internalType": "uint256",
          "name": "",
          "type": "uint256"
        }
      ],
      "name": "contractsByRenter",
      "outputs": [
        {
          "internalType": "contract RentContract",
          "name": "",
          "type": "address"
        }
      ],
      "stateMutability": "view",
      "type": "function"
    },
    {
      "inputs": [
        {
          "internalType": "address",
          "name": "_renter",
          "type": "address"
        },
        {
          "internalType": "address",
          "name": "_company",
          "type": "address"
        },
        {
          "internalType": "uint256",
          "name": "_deposit",
          "type": "uint256"
        },
        {
          "internalType": "uint256",
          "name": "_rentAmount",
          "type": "uint256"
        },
        {
          "internalType": "uint256",
          "name": "_startTime",
          "type": "uint256"
        },
        {
          "internalType": "uint256",
          "name": "_endTime",
          "type": "uint256"
        },
        {
          "internalType": "uint256",
          "name": "_unlockDelayHours",
          "type": "uint256"
        }
      ],
      "name": "createRentContract",
      "outputs": [
        {
          "internalType": "address",
          "name": "",
          "type": "address"
        }
      ],
      "stateMutability": "payable",
      "type": "function"
    },
    {
      "inputs": [],
      "name": "getAllContracts",
      "outputs": [
        {
          "internalType": "contract RentContract[]",
          "name": "",
          "type": "address[]"
        }
      ],
      "stateMutability": "view",
      "type": "function"
    },
    {
      "inputs": [
        {
          "internalType": "address",
          "name": "company",
          "type": "address"
        }
      ],
      "name": "getContractsByCompany",
      "outputs": [
        {
          "internalType": "contract RentContract[]",
          "name": "",
          "type": "address[]"
        }
      ],
      "stateMutability": "view",
      "type": "function"
    },
    {
      "inputs": [
        {
          "internalType": "address",
          "name": "renter",
          "type": "address"
        }
      ],
      "name": "getContractsByRenter",
      "outputs": [
        {
          "internalType": "contract RentContract[]",
          "name": "",
          "type": "address[]"
        }
      ],
      "stateMutability": "view",
      "type": "function"
    },
    {
      "inputs": [],
      "name": "owner",
      "outputs": [
        {
          "internalType": "address",
          "name": "",
          "type": "address"
        }
      ],
      "stateMutability": "view",
      "type": "function"
    }
  ],
  "bytecode": "0x6080604052348015600f57600080fd5b50336000806101000a81548173ffffffffffffffffffffffffffffffffffffffff021916908373ffffffffffffffffffffffffffffffffffffffff1602179055506125838061005f6000396000f3fe60806040526004361061007b5760003560e01c80638da5cb5b1161004e5780638da5cb5b14610162578063b16b26b81461018d578063b6f50f9b146101bd578063e54e26b9146101fa5761007b565b806318d3ce96146100805780633ef6f90e146100ab5780635797047c146100e857806375b1d0e314610125575b600080fd5b34801561008c57600080fd5b50610095610237565b6040516100a2919061091b565b60405180910390f35b3480156100b757600080fd5b506100d260048036038101906100cd91906109b6565b6102c5565b6040516100df9190610a05565b60405180910390f35b3480156100f457600080fd5b5061010f600480360381019061010a91906109b6565b610313565b60405161011c9190610a05565b60405180910390f35b34801561013157600080fd5b5061014c60048036038101906101479190610a20565b610361565b604051610159919061091b565b60405180910390f35b34801561016e57600080fd5b5061017761042e565b6040516101849190610a5c565b60405180910390f35b6101a760048036038101906101a29190610a77565b610452565b6040516101b49190610a5c565b60405180910390f35b3480156101c957600080fd5b506101e460048036038101906101df9190610a20565b6106d4565b6040516101f1919061091b565b60405180910390f35b34801561020657600080fd5b50610221600480360381019061021c9190610b19565b6107a1565b60405161022e9190610a05565b60405180910390f35b606060018054806020026020016040519081016040528092919081815260200182805480156102bb57602002820191906000526020600020905b8160009054906101000a900473ffffffffffffffffffffffffffffffffffffffff1673ffffffffffffffffffffffffffffffffffffffff1681526020019060010190808311610271575b5050505050905090565b600260205281600052604060002081815481106102e157600080fd5b906000526020600020016000915091509054906101000a900473ffffffffffffffffffffffffffffffffffffffff1681565b6003602052816000526040600020818154811061032f57600080fd5b906000526020600020016000915091509054906101000a900473ffffffffffffffffffffffffffffffffffffffff1681565b6060600260008373ffffffffffffffffffffffffffffffffffffffff1673ffffffffffffffffffffffffffffffffffffffff16815260200190815260200160002080548060200260200160405190810160405280929190818152602001828054801561042257602002820191906000526020600020905b8160009054906101000a900473ffffffffffffffffffffffffffffffffffffffff1673ffffffffffffffffffffffffffffffffffffffff16815260200190600101908083116103d8575b50505050509050919050565b60008054906101000a900473ffffffffffffffffffffffffffffffffffffffff1681565b600084866104609190610b75565b34146104a1576040517f08c379a000000000000000000000000000000000000000000000000000000000815260040161049890610c06565b60405180910390fd5b600034898989898989896040516104b7906107e0565b6104c79796959493929190610c35565b6040518091039082f09050801580156104e4573d6000803e3d6000fd5b5090506001819080600181540180825580915050600190039060005260206000200160009091909190916101000a81548173ffffffffffffffffffffffffffffffffffffffff021916908373ffffffffffffffffffffffffffffffffffffffff160217905550600260008a73ffffffffffffffffffffffffffffffffffffffff1673ffffffffffffffffffffffffffffffffffffffff168152602001908152602001600020819080600181540180825580915050600190039060005260206000200160009091909190916101000a81548173ffffffffffffffffffffffffffffffffffffffff021916908373ffffffffffffffffffffffffffffffffffffffff160217905550600360008973ffffffffffffffffffffffffffffffffffffffff1673ffffffffffffffffffffffffffffffffffffffff168152602001908152602001600020819080600181540180825580915050600190039060005260206000200160009091909190916101000a81548173ffffffffffffffffffffffffffffffffffffffff021916908373ffffffffffffffffffffffffffffffffffffffff1602179055507f1202c61d7d89c76ba1493b085733ede04e071a2a76bb0fbae1345f128fe8b29d818a8a6040516106bd93929190610ca4565b60405180910390a180915050979650505050505050565b6060600360008373ffffffffffffffffffffffffffffffffffffffff1673ffffffffffffffffffffffffffffffffffffffff16815260200190815260200160002080548060200260200160405190810160405280929190818152602001828054801561079557602002820191906000526020600020905b8160009054906101000a900473ffffffffffffffffffffffffffffffffffffffff1673ffffffffffffffffffffffffffffffffffffffff168152602001906001019080831161074b575b50505050509050919050565b600181815481106107b157600080fd5b906000526020600020016000915054906101000a900473ffffffffffffffffffffffffffffffffffffffff1681565b61187280610cdc83390190565b600081519050919050565b600082825260208201905092915050565b6000819050602082019050919050565b600073ffffffffffffffffffffffffffffffffffffffff82169050919050565b6000819050919050565b600061085e61085961085484610819565b610839565b610819565b9050919050565b600061087082610843565b9050919050565b600061088282610865565b9050919050565b61089281610877565b82525050565b60006108a48383610889565b60208301905092915050565b6000602082019050919050565b60006108c8826107ed565b6108d281856107f8565b93506108dd83610809565b8060005b8381101561090e5781516108f58882610898565b9750610900836108b0565b9250506001810190506108e1565b5085935050505092915050565b6000602082019050818103600083015261093581846108bd565b905092915050565b600080fd5b600061094d82610819565b9050919050565b61095d81610942565b811461096857600080fd5b50565b60008135905061097a81610954565b92915050565b6000819050919050565b61099381610980565b811461099e57600080fd5b50565b6000813590506109b08161098a565b92915050565b600080604083850312156109cd576109cc61093d565b5b60006109db8582860161096b565b92505060206109ec858286016109a1565b9150509250929050565b6109ff81610877565b82525050565b6000602082019050610a1a60008301846109f6565b92915050565b600060208284031215610a3657610a3561093d565b5b6000610a448482850161096b565b91505092915050565b610a5681610942565b82525050565b6000602082019050610a716000830184610a4d565b92915050565b600080600080600080600060e0888a031215610a9657610a9561093d565b5b6000610aa48a828b0161096b565b9750506020610ab58a828b0161096b565b9650506040610ac68a828b016109a1565b9550506060610ad78a828b016109a1565b9450506080610ae88a828b016109a1565b93505060a0610af98a828b016109a1565b92505060c0610b0a8a828b016109a1565b91505092959891949750929550565b600060208284031215610b2f57610b2e61093d565b5b6000610b3d848285016109a1565b91505092915050565b7f4e487b7100000000000000000000000000000000000000000000000000000000600052601160045260246000fd5b6000610b8082610980565b9150610b8b83610980565b9250828201905080821115610ba357610ba2610b46565b5b92915050565b600082825260208201905092915050565b7f496e636f72726563742076616c75650000000000000000000000000000000000600082015250565b6000610bf0600f83610ba9565b9150610bfb82610bba565b602082019050919050565b60006020820190508181036000830152610c1f81610be3565b9050919050565b610c2f81610980565b82525050565b600060e082019050610c4a600083018a610a4d565b610c576020830189610a4d565b610c646040830188610c26565b610c716060830187610c26565b610c7e6080830186610c26565b610c8b60a0830185610c26565b610c9860c0830184610c26565b98975050505050505050565b6000606082019050610cb96000830186610a4d565b610cc66020830185610a4d565b610cd36040830184610a4d565b94935050505056fe6080604052604051611872380380611872833981810160405281019061002591906101d5565b838561003191906102a6565b3414610072576040517f08c379a000000000000000000000000000000000000000000000000000000000815260040161006990610337565b60405180910390fd5b866000806101000a81548173ffffffffffffffffffffffffffffffffffffffff021916908373ffffffffffffffffffffffffffffffffffffffff16021790555085600160006101000a81548173ffffffffffffffffffffffffffffffffffffffff021916908373ffffffffffffffffffffffffffffffffffffffff16021790555084600281905550836003819055508260048190555081600581905550610e108161011d9190610357565b60055461012a91906102a6565b60068190555050505050505050610399565b600080fd5b600073ffffffffffffffffffffffffffffffffffffffff82169050919050565b600061016c82610141565b9050919050565b61017c81610161565b811461018757600080fd5b50565b60008151905061019981610173565b92915050565b6000819050919050565b6101b28161019f565b81146101bd57600080fd5b50565b6000815190506101cf816101a9565b92915050565b600080600080600080600060e0888a0312156101f4576101f361013c565b5b60006102028a828b0161018a565b97505060206102138a828b0161018a565b96505060406102248a828b016101c0565b95505060606102358a828b016101c0565b94505060806102468a828b016101c0565b93505060a06102578a828b016101c0565b92505060c06102688a828b016101c0565b91505092959891949750929550565b7f4e487b7100000000000000000000000000000000000000000000000000000000600052601160045260246000fd5b60006102b18261019f565b91506102bc8361019f565b92508282019050808211156102d4576102d3610277565b5b92915050565b600082825260208201905092915050565b7f496e636f72726563742066756e64730000000000000000000000000000000000600082015250565b6000610321600f836102da565b915061032c826102eb565b602082019050919050565b6000602082019050818103600083015261035081610314565b9050919050565b60006103628261019f565b915061036d8361019f565b925082820261037b8161019f565b9150828204841483151761039257610391610277565b5b5092915050565b6114ca806103a86000396000f3fe608060405234801561001057600080fd5b506004361061010b5760003560e01c806364d3d136116100a2578063856055a911610071578063856055a914610228578063a0f109c514610246578063d0e30db014610262578063e2b209b714610280578063f8ef1e131461029c5761010b565b806364d3d136146101c45780636904c94d146101ce57806378e97925146101ec5780637fc2a9b91461020a5761010b565b80633197cbb6116100de5780633197cbb61461017457806350daf7c91461019257806355faf9ae1461019c57806358f29334146101ba5761010b565b80630c5b3eb1146101105780631a241bd81461012e578063251c1aa3146101385780632e88ab0b14610156575b600080fd5b6101186102ba565b6040516101259190610d51565b60405180910390f35b6101366102cd565b005b6101406103bf565b60405161014d9190610d85565b60405180910390f35b61015e6103c5565b60405161016b9190610de1565b60405180910390f35b61017c6103e9565b6040516101899190610d85565b60405180910390f35b61019a6103ef565b005b6101a461053b565b6040516101b19190610d51565b60405180910390f35b6101c261054e565b005b6101cc610663565b005b6101d6610833565b6040516101e39190610de1565b60405180910390f35b6101f4610859565b6040516102019190610d85565b60405180910390f35b61021261085f565b60405161021f9190610d51565b60405180910390f35b610230610872565b60405161023d9190610d51565b60405180910390f35b610260600480360381019061025b9190610e2d565b610885565b005b61026a610ad2565b6040516102779190610d85565b60405180910390f35b61029a60048036038101906102959190610e5a565b610ad8565b005b6102a4610d30565b6040516102b19190610d85565b60405180910390f35b600760039054906101000a900460ff1681565b600160009054906101000a900473ffffffffffffffffffffffffffffffffffffffff1673ffffffffffffffffffffffffffffffffffffffff163373ffffffffffffffffffffffffffffffffffffffff161461035d576040517f08c379a000000000000000000000000000000000000000000000000000000000815260040161035490610ef7565b60405180910390fd5b6004544210156103a2576040517f08c379a000000000000000000000000000000000000000000000000000000000815260040161039990610f63565b60405180910390fd5b6001600760006101000a81548160ff021916908315150217905550565b60065481565b60008054906101000a900473ffffffffffffffffffffffffffffffffffffffff1681565b60055481565b600760019054906101000a900460ff1680156104185750600760039054906101000a900460ff16155b801561042657506006544210155b610465576040517f08c379a000000000000000000000000000000000000000000000000000000000815260040161045c90610fcf565b60405180910390fd5b600760029054906101000a900460ff16156104b5576040517f08c379a00000000000000000000000000000000000000000000000000000000081526004016104ac9061103b565b60405180910390fd5b6001600760036101000a81548160ff02191690831515021790555060008054906101000a900473ffffffffffffffffffffffffffffffffffffffff1673ffffffffffffffffffffffffffffffffffffffff166108fc6002549081150290604051600060405180830381858888f19350505050158015610538573d6000803e3d6000fd5b50565b600760019054906101000a900460ff1681565b600160009054906101000a900473ffffffffffffffffffffffffffffffffffffffff1673ffffffffffffffffffffffffffffffffffffffff163373ffffffffffffffffffffffffffffffffffffffff16146105de576040517f08c379a00000000000000000000000000000000000000000000000000000000081526004016105d590610ef7565b60405180910390fd5b600760019054906101000a900460ff1680156106075750600760039054906101000a900460ff16155b610646576040517f08c379a000000000000000000000000000000000000000000000000000000000815260040161063d906110a7565b60405180910390fd5b6001600760026101000a81548160ff021916908315150217905550565b60008054906101000a900473ffffffffffffffffffffffffffffffffffffffff1673ffffffffffffffffffffffffffffffffffffffff163373ffffffffffffffffffffffffffffffffffffffff16146106f1576040517f08c379a00000000000000000000000000000000000000000000000000000000081526004016106e890611113565b60405180910390fd5b6004544210610735576040517f08c379a000000000000000000000000000000000000000000000000000000000815260040161072c9061117f565b60405180910390fd5b600760009054906101000a900460ff1615610785576040517f08c379a000000000000000000000000000000000000000000000000000000000815260040161077c906111eb565b60405180910390fd5b6001600760016101000a81548160ff0219169083151502179055506001600760036101000a81548160ff02191690831515021790555060008054906101000a900473ffffffffffffffffffffffffffffffffffffffff1673ffffffffffffffffffffffffffffffffffffffff166108fc600354600254610805919061123a565b9081150290604051600060405180830381858888f19350505050158015610830573d6000803e3d6000fd5b50565b600160009054906101000a900473ffffffffffffffffffffffffffffffffffffffff1681565b60045481565b600760009054906101000a900460ff1681565b600760029054906101000a900460ff1681565b600160009054906101000a900473ffffffffffffffffffffffffffffffffffffffff1673ffffffffffffffffffffffffffffffffffffffff163373ffffffffffffffffffffffffffffffffffffffff1614610915576040517f08c379a000000000000000000000000000000000000000000000000000000000815260040161090c90610ef7565b60405180910390fd5b600760029054906101000a900460ff16801561093e5750600760039054906101000a900460ff16155b61097d576040517f08c379a0000000000000000000000000000000000000000000000000000000008152600401610974906112ba565b60405180910390fd5b6001600760036101000a81548160ff0219169083151502179055506000811115610a50576002548111156109e6576040517f08c379a00000000000000000000000000000000000000000000000000000000081526004016109dd90611326565b60405180910390fd5b600160009054906101000a900473ffffffffffffffffffffffffffffffffffffffff1673ffffffffffffffffffffffffffffffffffffffff166108fc829081150290604051600060405180830381858888f19350505050158015610a4e573d6000803e3d6000fd5b505b806002541115610acf5760008054906101000a900473ffffffffffffffffffffffffffffffffffffffff1673ffffffffffffffffffffffffffffffffffffffff166108fc82600254610aa29190611346565b9081150290604051600060405180830381858888f19350505050158015610acd573d6000803e3d6000fd5b505b50565b60025481565b60008054906101000a900473ffffffffffffffffffffffffffffffffffffffff1673ffffffffffffffffffffffffffffffffffffffff163373ffffffffffffffffffffffffffffffffffffffff1614610b66576040517f08c379a0000000000000000000000000000000000000000000000000000000008152600401610b5d90611113565b60405180910390fd5b600760009054906101000a900460ff168015610b8f5750600760019054906101000a900460ff16155b610bce576040517f08c379a0000000000000000000000000000000000000000000000000000000008152600401610bc5906113c6565b60405180910390fd5b6001600760016101000a81548160ff02191690831515021790555060008183610bf791906113e6565b9050600354811115610c3e576040517f08c379a0000000000000000000000000000000000000000000000000000000008152600401610c3590611474565b60405180910390fd5b600160009054906101000a900473ffffffffffffffffffffffffffffffffffffffff1673ffffffffffffffffffffffffffffffffffffffff166108fc829081150290604051600060405180830381858888f19350505050158015610ca6573d6000803e3d6000fd5b50600081600354610cb79190611346565b90506000811115610d2a5760008054906101000a900473ffffffffffffffffffffffffffffffffffffffff1673ffffffffffffffffffffffffffffffffffffffff166108fc829081150290604051600060405180830381858888f19350505050158015610d28573d6000803e3d6000fd5b505b50505050565b60035481565b60008115159050919050565b610d4b81610d36565b82525050565b6000602082019050610d666000830184610d42565b92915050565b6000819050919050565b610d7f81610d6c565b82525050565b6000602082019050610d9a6000830184610d76565b92915050565b600073ffffffffffffffffffffffffffffffffffffffff82169050919050565b6000610dcb82610da0565b9050919050565b610ddb81610dc0565b82525050565b6000602082019050610df66000830184610dd2565b92915050565b600080fd5b610e0a81610d6c565b8114610e1557600080fd5b50565b600081359050610e2781610e01565b92915050565b600060208284031215610e4357610e42610dfc565b5b6000610e5184828501610e18565b91505092915050565b60008060408385031215610e7157610e70610dfc565b5b6000610e7f85828601610e18565b9250506020610e9085828601610e18565b9150509250929050565b600082825260208201905092915050565b7f4f6e6c7920636f6d70616e790000000000000000000000000000000000000000600082015250565b6000610ee1600c83610e9a565b9150610eec82610eab565b602082019050919050565b60006020820190508181036000830152610f1081610ed4565b9050919050565b7f546f6f206561726c790000000000000000000000000000000000000000000000600082015250565b6000610f4d600983610e9a565b9150610f5882610f17565b602082019050919050565b60006020820190508181036000830152610f7c81610f40565b9050919050565b7f4e6f7420796574206f722066726f7a656e000000000000000000000000000000600082015250565b6000610fb9601183610e9a565b9150610fc482610f83565b602082019050919050565b60006020820190508181036000830152610fe881610fac565b9050919050565b7f4465706f7369742066726f7a656e000000000000000000000000000000000000600082015250565b6000611025600e83610e9a565b915061103082610fef565b602082019050919050565b6000602082019050818103600083015261105481611018565b9050919050565b7f4e6f7420656c696769626c650000000000000000000000000000000000000000600082015250565b6000611091600c83610e9a565b915061109c8261105b565b602082019050919050565b600060208201905081810360008301526110c081611084565b9050919050565b7f4f6e6c792072656e746572000000000000000000000000000000000000000000600082015250565b60006110fd600b83610e9a565b9150611108826110c7565b602082019050919050565b6000602082019050818103600083015261112c816110f0565b9050919050565b7f52656e74616c20616c7265616479207374617274656400000000000000000000600082015250565b6000611169601683610e9a565b915061117482611133565b602082019050919050565b600060208201905081810360008301526111988161115c565b9050919050565b7f52656e74616c20616c7265616479206d61726b65642061732073746172746564600082015250565b60006111d5602083610e9a565b91506111e08261119f565b602082019050919050565b60006020820190508181036000830152611204816111c8565b9050919050565b7f4e487b7100000000000000000000000000000000000000000000000000000000600052601160045260246000fd5b600061124582610d6c565b915061125083610d6c565b92508282019050808211156112685761126761120b565b5b92915050565b7f43616e6e6f742072656c65617365000000000000000000000000000000000000600082015250565b60006112a4600e83610e9a565b91506112af8261126e565b602082019050919050565b600060208201905081810360008301526112d381611297565b9050919050565b7f546f6f206d756368000000000000000000000000000000000000000000000000600082015250565b6000611310600883610e9a565b915061131b826112da565b602082019050919050565b6000602082019050818103600083015261133f81611303565b9050919050565b600061135182610d6c565b915061135c83610d6c565b92508282039050818111156113745761137361120b565b5b92915050565b7f496e76616c696420737461746500000000000000000000000000000000000000600082015250565b60006113b0600d83610e9a565b91506113bb8261137a565b602082019050919050565b600060208201905081810360008301526113df816113a3565b9050919050565b60006113f182610d6c565b91506113fc83610d6c565b925082820261140a81610d6c565b915082820484148315176114215761142061120b565b5b5092915050565b7f496e76616c696420616d6f756e74000000000000000000000000000000000000600082015250565b600061145e600e83610e9a565b915061146982611428565b602082019050919050565b6000602082019050818103600083015261148d81611451565b905091905056fea2646970667358221220d3be48b69a8d655f293296026475788eb93e8c85d3dcb73eb26bb85cd1e6b11f64736f6c634300081c0033a2646970667358221220d58f2e4c398a2e73720dcb91892516e89dd89e27ec9ce7a18eff2c24eedca94f64736f6c634300081c0033",
  "linkReferences": {},
  "deployedLinkReferences": {}
}