{
  "_format": "hh-sol-artifact-1",
  "contractName": "RentContractFactory",
  "sourceName": "contracts/RentContractFactory.sol",
  "abi": [
    {
      "inputs": [
        {
          "internalType": "address",
          "name": "_implementation",
          "type": "address"
        }
      ],
      "stateMutability": "nonpayable",
      "type": "constructor"
    },
    {
      "inputs": [],
      "name": "FailedDeployment",
      "type": "error"
    },
    {
      "inputs": [
        {
          "internalType": "uint256",
          "name": "balance",
          "type": "uint256"
        },
        {
          "internalType": "uint256",
          "name": "needed",
          "type": "uint256"
        }
      ],
      "name": "InsufficientBalance",
      "type": "error"
    },
    {
      "anonymous": false,
      "inputs": [
        {
          "indexed": false,
          "internalType": "address",
          "name": "cloneAddress",
          "type": "address"
        }
      ],
      "name": "CloneCreated",
      "type": "event"
    },
    {
      "anonymous": false,
      "inputs": [
        {
          "indexed": false,
          "internalType": "address",
          "name": "contractAddress",
          "type": "address"
        },
        {
          "indexed": false,
          "internalType": "address",
          "name": "renter",
          "type": "address"
        },
        {
          "indexed": false,
          "internalType": "address",
          "name": "company",
          "type": "address"
        }
      ],
      "name": "ContractCreated",
      "type": "event"
    },
    {
      "anonymous": false,
      "inputs": [
        {
          "indexed": false,
          "internalType": "address",
          "name": "deployer",
          "type": "address"
        },
        {
          "indexed": false,
          "internalType": "address",
          "name": "implementationAddress",
          "type": "address"
        }
      ],
      "name": "FactoryDeployed",
      "type": "event"
    },
    {
      "anonymous": false,
      "inputs": [
        {
          "indexed": false,
          "internalType": "bool",
          "name": "success",
          "type": "bool"
        }
      ],
      "name": "InitCalled",
      "type": "event"
    },
    {
      "inputs": [
        {
          "internalType": "uint256",
          "name": "",
          "type": "uint256"
        }
      ],
      "name": "allContracts",
      "outputs": [
        {
          "internalType": "contract RentContract",
          "name": "",
          "type": "address"
        }
      ],
      "stateMutability": "view",
      "type": "function"
    },
    {
      "inputs": [
        {
          "internalType": "address",
          "name": "",
          "type": "address"
        },
        {
          "internalType": "uint256",
          "name": "",
          "type": "uint256"
        }
      ],
      "name": "contractsByCompany",
      "outputs": [
        {
          "internalType": "contract RentContract",
          "name": "",
          "type": "address"
        }
      ],
      "stateMutability": "view",
      "type": "function"
    },
    {
      "inputs": [
        {
          "internalType": "address",
          "name": "",
          "type": "address"
        },
        {
          "internalType": "uint256",
          "name": "",
          "type": "uint256"
        }
      ],
      "name": "contractsByRenter",
      "outputs": [
        {
          "internalType": "contract RentContract",
          "name": "",
          "type": "address"
        }
      ],
      "stateMutability": "view",
      "type": "function"
    },
    {
      "inputs": [
        {
          "internalType": "address",
          "name": "_renter",
          "type": "address"
        },
        {
          "internalType": "address",
          "name": "_company",
          "type": "address"
        },
        {
          "internalType": "uint256",
          "name": "_deposit",
          "type": "uint256"
        },
        {
          "internalType": "uint256",
          "name": "_rentAmount",
          "type": "uint256"
        },
        {
          "internalType": "uint256",
          "name": "_startTime",
          "type": "uint256"
        },
        {
          "internalType": "uint256",
          "name": "_endTime",
          "type": "uint256"
        },
        {
          "internalType": "uint256",
          "name": "_unlockDelayHours",
          "type": "uint256"
        }
      ],
      "name": "createRentContract",
      "outputs": [
        {
          "internalType": "address",
          "name": "",
          "type": "address"
        }
      ],
      "stateMutability": "nonpayable",
      "type": "function"
    },
    {
      "inputs": [],
      "name": "getAllContracts",
      "outputs": [
        {
          "internalType": "contract RentContract[]",
          "name": "",
          "type": "address[]"
        }
      ],
      "stateMutability": "view",
      "type": "function"
    },
    {
      "inputs": [
        {
          "internalType": "address",
          "name": "company",
          "type": "address"
        }
      ],
      "name": "getContractsByCompany",
      "outputs": [
        {
          "internalType": "contract RentContract[]",
          "name": "",
          "type": "address[]"
        }
      ],
      "stateMutability": "view",
      "type": "function"
    },
    {
      "inputs": [
        {
          "internalType": "address",
          "name": "renter",
          "type": "address"
        }
      ],
      "name": "getContractsByRenter",
      "outputs": [
        {
          "internalType": "contract RentContract[]",
          "name": "",
          "type": "address[]"
        }
      ],
      "stateMutability": "view",
      "type": "function"
    },
    {
      "inputs": [],
      "name": "implementation",
      "outputs": [
        {
          "internalType": "address",
          "name": "",
          "type": "address"
        }
      ],
      "stateMutability": "view",
      "type": "function"
    },
    {
      "inputs": [],
      "name": "owner",
      "outputs": [
        {
          "internalType": "address",
          "name": "",
          "type": "address"
        }
      ],
      "stateMutability": "view",
      "type": "function"
    }
  ],
  "bytecode": "0x608060405234801561001057600080fd5b506040516108e83803806108e883398101604081905261002f9161009a565b600080546001600160a01b031990811633908117909255600180546001600160a01b0385169216821790556040805192835260208301919091527ff96fae1c85039df437ec1af96b53627ef4b8de60de364b148c795c4b0ccb2361910160405180910390a1506100ca565b6000602082840312156100ac57600080fd5b81516001600160a01b03811681146100c357600080fd5b9392505050565b61080f806100d96000396000f3fe608060405234801561001057600080fd5b50600436106100935760003560e01c806375b1d0e31161006657806375b1d0e3146101075780638da5cb5b1461011a578063b16b26b81461012d578063b6f50f9b14610140578063e54e26b91461015357600080fd5b806318d3ce96146100985780633ef6f90e146100b65780635797047c146100e15780635c60da1b146100f4575b600080fd5b6100a0610166565b6040516100ad919061067e565b60405180910390f35b6100c96100c43660046106e7565b6101c8565b6040516001600160a01b0390911681526020016100ad565b6100c96100ef3660046106e7565b610200565b6001546100c9906001600160a01b031681565b6100a0610115366004610711565b61021c565b6000546100c9906001600160a01b031681565b6100c961013b366004610733565b610292565b6100a061014e366004610711565b610537565b6100c9610161366004610791565b6105ab565b606060028054806020026020016040519081016040528092919081815260200182805480156101be57602002820191906000526020600020905b81546001600160a01b031681526001909101906020018083116101a0575b5050505050905090565b600360205281600052604060002081815481106101e457600080fd5b6000918252602090912001546001600160a01b03169150829050565b600460205281600052604060002081815481106101e457600080fd5b6001600160a01b03811660009081526003602090815260409182902080548351818402810184019094528084526060939283018282801561028657602002820191906000526020600020905b81546001600160a01b03168152600190910190602001808311610268575b50505050509050919050565b60015460009081906102ac906001600160a01b03166105d5565b6040516001600160a01b03821681529091507fbe2f3d28fdeb5839123d65fd47ec2f5915c715d2b527b9e229123706fdecfc859060200160405180910390a16040516001600160a01b038a811660248301528981166044830152606482018990526084820188905260a4820187905260c4820186905260e48201859052600091908316906101040160408051601f198184030181529181526020820180516001600160e01b03166376dfa56160e11b1790525161036991906107aa565b6000604051808303816000865af19150503d80600081146103a6576040519150601f19603f3d011682016040523d82523d6000602084013e6103ab565b606091505b505090507f97e57290c969d9bdd8ae33778c99de10bb998dc1e1f9173567b40720be817902816040516103e2911515815260200190565b60405180910390a1806104345760405162461bcd60e51b8152602060048201526015602482015274125b9a5d1a585b1a5e985d1a5bdb8819985a5b1959605a1b60448201526064015b60405180910390fd5b6002805460018181019092557f405787fa12a823e0f2b7631cc41b3ba8828b3321ca811111fa75cd3aa3bb5ace0180546001600160a01b038086166001600160a01b031992831681179093558d8116600090815260036020908152604080832080548089018255908452828420018054861687179055928f168252600481528282208054968701815582529020909301805490911690911790555182907f1202c61d7d89c76ba1493b085733ede04e071a2a76bb0fbae1345f128fe8b29d906105209083908e908e906001600160a01b0393841681529183166020830152909116604082015260600190565b60405180910390a150909998505050505050505050565b6001600160a01b038116600090815260046020908152604091829020805483518184028101840190945280845260609392830182828015610286576020028201919060005260206000209081546001600160a01b031681526001909101906020018083116102685750505050509050919050565b600281815481106105bb57600080fd5b6000918252602090912001546001600160a01b0316905081565b60006105e28260006105e8565b92915050565b6000814710156106145760405163cf47918160e01b81524760048201526024810183905260440161042b565b763d602d80600a3d3981f3363d3d373d3d3d363d730000008360601b60e81c176000526e5af43d82803e903d91602b57fd5bf38360781b176020526037600983f090506001600160a01b0381166105e25760405163b06ebf3d60e01b815260040160405180910390fd5b6020808252825182820181905260009190848201906040850190845b818110156106bf5783516001600160a01b03168352928401929184019160010161069a565b50909695505050505050565b80356001600160a01b03811681146106e257600080fd5b919050565b600080604083850312156106fa57600080fd5b610703836106cb565b946020939093013593505050565b60006020828403121561072357600080fd5b61072c826106cb565b9392505050565b600080600080600080600060e0888a03121561074e57600080fd5b610757886106cb565b9650610765602089016106cb565b96999698505050506040850135946060810135946080820135945060a0820135935060c0909101359150565b6000602082840312156107a357600080fd5b5035919050565b6000825160005b818110156107cb57602081860181015185830152016107b1565b50600092019182525091905056fea264697066735822122073d34efb298b8ad795ce1b3d83b0eca96a6311f4f4729a40baaf5b252751f78e64736f6c63430008140033",
  "linkReferences": {},
  "deployedLinkReferences": {}
}