{"contracts/RentContractFactory.sol":{"RentContractFactory":{"abi":[{"inputs":[{"internalType":"address","name":"_implementation","type":"address"}],"stateMutability":"nonpayable","type":"constructor"},{"inputs":[],"name":"FailedDeployment","type":"error"},{"inputs":[{"internalType":"uint256","name":"balance","type":"uint256"},{"internalType":"uint256","name":"needed","type":"uint256"}],"name":"InsufficientBalance","type":"error"},{"anonymous":false,"inputs":[{"indexed":false,"internalType":"address","name":"cloneAddress","type":"address"}],"name":"CloneCreated","type":"event"},{"anonymous":false,"inputs":[{"indexed":false,"internalType":"address","name":"contractAddress","type":"address"},{"indexed":false,"internalType":"address","name":"renter","type":"address"},{"indexed":false,"internalType":"address","name":"company","type":"address"}],"name":"ContractCreated","type":"event"},{"anonymous":false,"inputs":[{"indexed":false,"internalType":"address","name":"deployer","type":"address"},{"indexed":false,"internalType":"address","name":"implementationAddress","type":"address"}],"name":"FactoryDeployed","type":"event"},{"anonymous":false,"inputs":[{"indexed":false,"internalType":"bool","name":"success","type":"bool"}],"name":"InitCalled","type":"event"},{"inputs":[{"internalType":"uint256","name":"","type":"uint256"}],"name":"allContracts","outputs":[{"internalType":"contract RentContract","name":"","type":"address"}],"stateMutability":"view","type":"function"},{"inputs":[{"internalType":"address","name":"","type":"address"},{"internalType":"uint256","name":"","type":"uint256"}],"name":"contractsByCompany","outputs":[{"internalType":"contract RentContract","name":"","type":"address"}],"stateMutability":"view","type":"function"},{"inputs":[{"internalType":"address","name":"","type":"address"},{"internalType":"uint256","name":"","type":"uint256"}],"name":"contractsByRenter","outputs":[{"internalType":"contract RentContract","name":"","type":"address"}],"stateMutability":"view","type":"function"},{"inputs":[{"internalType":"address","name":"_renter","type":"address"},{"internalType":"address","name":"_company","type":"address"},{"internalType":"uint256","name":"_deposit","type":"uint256"},{"internalType":"uint256","name":"_rentAmount","type":"uint256"},{"internalType":"uint256","name":"_startTime","type":"uint256"},{"internalType":"uint256","name":"_endTime","type":"uint256"},{"internalType":"uint256","name":"_unlockDelayHours","type":"uint256"}],"name":"createRentContract","outputs":[{"internalType":"address","name":"","type":"address"}],"stateMutability":"nonpayable","type":"function"},{"inputs":[],"name":"getAllContracts","outputs":[{"internalType":"contract RentContract[]","name":"","type":"address[]"}],"stateMutability":"view","type":"function"},{"inputs":[{"internalType":"address","name":"company","type":"address"}],"name":"getContractsByCompany","outputs":[{"internalType":"contract RentContract[]","name":"","type":"address[]"}],"stateMutability":"view","type":"function"},{"inputs":[{"internalType":"address","name":"renter","type":"address"}],"name":"getContractsByRenter","outputs":[{"internalType":"contract RentContract[]","name":"","type":"address[]"}],"stateMutability":"view","type":"function"},{"inputs":[],"name":"implementation","outputs":[{"internalType":"address","name":"","type":"address"}],"stateMutability":"view","type":"function"},{"inputs":[],"name":"owner","outputs":[{"internalType":"address","name":"","type":"address"}],"stateMutability":"view","type":"function"}],"evm":{"bytecode":{"linkReferences":{},"object":"608060405234801561001057600080fd5b506040516108e83803806108e883398101604081905261002f9161009a565b600080546001600160a01b031990811633908117909255600180546001600160a01b0385169216821790556040805192835260208301919091527ff96fae1c85039df437ec1af96b53627ef4b8de60de364b148c795c4b0ccb2361910160405180910390a1506100ca565b6000602082840312156100ac57600080fd5b81516001600160a01b03811681146100c357600080fd5b9392505050565b61080f806100d96000396000f3fe608060405234801561001057600080fd5b50600436106100935760003560e01c806375b1d0e31161006657806375b1d0e3146101075780638da5cb5b1461011a578063b16b26b81461012d578063b6f50f9b14610140578063e54e26b91461015357600080fd5b806318d3ce96146100985780633ef6f90e146100b65780635797047c146100e15780635c60da1b146100f4575b600080fd5b6100a0610166565b6040516100ad919061067e565b60405180910390f35b6100c96100c43660046106e7565b6101c8565b6040516001600160a01b0390911681526020016100ad565b6100c96100ef3660046106e7565b610200565b6001546100c9906001600160a01b031681565b6100a0610115366004610711565b61021c565b6000546100c9906001600160a01b031681565b6100c961013b366004610733565b610292565b6100a061014e366004610711565b610537565b6100c9610161366004610791565b6105ab565b606060028054806020026020016040519081016040528092919081815260200182805480156101be57602002820191906000526020600020905b81546001600160a01b031681526001909101906020018083116101a0575b5050505050905090565b600360205281600052604060002081815481106101e457600080fd5b6000918252602090912001546001600160a01b03169150829050565b600460205281600052604060002081815481106101e457600080fd5b6001600160a01b03811660009081526003602090815260409182902080548351818402810184019094528084526060939283018282801561028657602002820191906000526020600020905b81546001600160a01b03168152600190910190602001808311610268575b50505050509050919050565b60015460009081906102ac906001600160a01b03166105d5565b6040516001600160a01b03821681529091507fbe2f3d28fdeb5839123d65fd47ec2f5915c715d2b527b9e229123706fdecfc859060200160405180910390a16040516001600160a01b038a811660248301528981166044830152606482018990526084820188905260a4820187905260c4820186905260e48201859052600091908316906101040160408051601f198184030181529181526020820180516001600160e01b03166376dfa56160e11b1790525161036991906107aa565b6000604051808303816000865af19150503d80600081146103a6576040519150601f19603f3d011682016040523d82523d6000602084013e6103ab565b606091505b505090507f97e57290c969d9bdd8ae33778c99de10bb998dc1e1f9173567b40720be817902816040516103e2911515815260200190565b60405180910390a1806104345760405162461bcd60e51b8152602060048201526015602482015274125b9a5d1a585b1a5e985d1a5bdb8819985a5b1959605a1b60448201526064015b60405180910390fd5b6002805460018181019092557f405787fa12a823e0f2b7631cc41b3ba8828b3321ca811111fa75cd3aa3bb5ace0180546001600160a01b038086166001600160a01b031992831681179093558d8116600090815260036020908152604080832080548089018255908452828420018054861687179055928f168252600481528282208054968701815582529020909301805490911690911790555182907f1202c61d7d89c76ba1493b085733ede04e071a2a76bb0fbae1345f128fe8b29d906105209083908e908e906001600160a01b0393841681529183166020830152909116604082015260600190565b60405180910390a150909998505050505050505050565b6001600160a01b038116600090815260046020908152604091829020805483518184028101840190945280845260609392830182828015610286576020028201919060005260206000209081546001600160a01b031681526001909101906020018083116102685750505050509050919050565b600281815481106105bb57600080fd5b6000918252602090912001546001600160a01b0316905081565b60006105e28260006105e8565b92915050565b6000814710156106145760405163cf47918160e01b81524760048201526024810183905260440161042b565b763d602d80600a3d3981f3363d3d373d3d3d363d730000008360601b60e81c176000526e5af43d82803e903d91602b57fd5bf38360781b176020526037600983f090506001600160a01b0381166105e25760405163b06ebf3d60e01b815260040160405180910390fd5b6020808252825182820181905260009190848201906040850190845b818110156106bf5783516001600160a01b03168352928401929184019160010161069a565b50909695505050505050565b80356001600160a01b03811681146106e257600080fd5b919050565b600080604083850312156106fa57600080fd5b610703836106cb565b946020939093013593505050565b60006020828403121561072357600080fd5b61072c826106cb565b9392505050565b600080600080600080600060e0888a03121561074e57600080fd5b610757886106cb565b9650610765602089016106cb565b96999698505050506040850135946060810135946080820135945060a0820135935060c0909101359150565b6000602082840312156107a357600080fd5b5035919050565b6000825160005b818110156107cb57602081860181015185830152016107b1565b50600092019182525091905056fea264697066735822122073d34efb298b8ad795ce1b3d83b0eca96a6311f4f4729a40baaf5b252751f78e64736f6c63430008140033","opcodes":"PUSH1 0x80 PUSH1 0x40 MSTORE CALLVALUE DUP1 ISZERO PUSH2 0x10 JUMPI PUSH1 0x0 DUP1 REVERT JUMPDEST POP PUSH1 0x40 MLOAD PUSH2 0x8E8 CODESIZE SUB DUP1 PUSH2 0x8E8 DUP4 CODECOPY DUP2 ADD PUSH1 0x40 DUP2 SWAP1 MSTORE PUSH2 0x2F SWAP2 PUSH2 0x9A JUMP JUMPDEST PUSH1 0x0 DUP1 SLOAD PUSH1 0x1 PUSH1 0x1 PUSH1 0xA0 SHL SUB NOT SWAP1 DUP2 AND CALLER SWAP1 DUP2 OR SWAP1 SWAP3 SSTORE PUSH1 0x1 DUP1 SLOAD PUSH1 0x1 PUSH1 0x1 PUSH1 0xA0 SHL SUB DUP6 AND SWAP3 AND DUP3 OR SWAP1 SSTORE PUSH1 0x40 DUP1 MLOAD SWAP3 DUP4 MSTORE PUSH1 0x20 DUP4 ADD SWAP2 SWAP1 SWAP2 MSTORE PUSH32 0xF96FAE1C85039DF437EC1AF96B53627EF4B8DE60DE364B148C795C4B0CCB2361 SWAP2 ADD PUSH1 0x40 MLOAD DUP1 SWAP2 SUB SWAP1 LOG1 POP PUSH2 0xCA JUMP JUMPDEST PUSH1 0x0 PUSH1 0x20 DUP3 DUP5 SUB SLT ISZERO PUSH2 0xAC JUMPI PUSH1 0x0 DUP1 REVERT JUMPDEST DUP2 MLOAD PUSH1 0x1 PUSH1 0x1 PUSH1 0xA0 SHL SUB DUP2 AND DUP2 EQ PUSH2 0xC3 JUMPI PUSH1 0x0 DUP1 REVERT JUMPDEST SWAP4 SWAP3 POP POP POP JUMP JUMPDEST PUSH2 0x80F DUP1 PUSH2 0xD9 PUSH1 0x0 CODECOPY PUSH1 0x0 RETURN INVALID PUSH1 0x80 PUSH1 0x40 MSTORE CALLVALUE DUP1 ISZERO PUSH2 0x10 JUMPI PUSH1 0x0 DUP1 REVERT JUMPDEST POP PUSH1 0x4 CALLDATASIZE LT PUSH2 0x93 JUMPI PUSH1 0x0 CALLDATALOAD PUSH1 0xE0 SHR DUP1 PUSH4 0x75B1D0E3 GT PUSH2 0x66 JUMPI DUP1 PUSH4 0x75B1D0E3 EQ PUSH2 0x107 JUMPI DUP1 PUSH4 0x8DA5CB5B EQ PUSH2 0x11A JUMPI DUP1 PUSH4 0xB16B26B8 EQ PUSH2 0x12D JUMPI DUP1 PUSH4 0xB6F50F9B EQ PUSH2 0x140 JUMPI DUP1 PUSH4 0xE54E26B9 EQ PUSH2 0x153 JUMPI PUSH1 0x0 DUP1 REVERT JUMPDEST DUP1 PUSH4 0x18D3CE96 EQ PUSH2 0x98 JUMPI DUP1 PUSH4 0x3EF6F90E EQ PUSH2 0xB6 JUMPI DUP1 PUSH4 0x5797047C EQ PUSH2 0xE1 JUMPI DUP1 PUSH4 0x5C60DA1B EQ PUSH2 0xF4 JUMPI JUMPDEST PUSH1 0x0 DUP1 REVERT JUMPDEST PUSH2 0xA0 PUSH2 0x166 JUMP JUMPDEST PUSH1 0x40 MLOAD PUSH2 0xAD SWAP2 SWAP1 PUSH2 0x67E JUMP JUMPDEST PUSH1 0x40 MLOAD DUP1 SWAP2 SUB SWAP1 RETURN JUMPDEST PUSH2 0xC9 PUSH2 0xC4 CALLDATASIZE PUSH1 0x4 PUSH2 0x6E7 JUMP JUMPDEST PUSH2 0x1C8 JUMP JUMPDEST PUSH1 0x40 MLOAD PUSH1 0x1 PUSH1 0x1 PUSH1 0xA0 SHL SUB SWAP1 SWAP2 AND DUP2 MSTORE PUSH1 0x20 ADD PUSH2 0xAD JUMP JUMPDEST PUSH2 0xC9 PUSH2 0xEF CALLDATASIZE PUSH1 0x4 PUSH2 0x6E7 JUMP JUMPDEST PUSH2 0x200 JUMP JUMPDEST PUSH1 0x1 SLOAD PUSH2 0xC9 SWAP1 PUSH1 0x1 PUSH1 0x1 PUSH1 0xA0 SHL SUB AND DUP2 JUMP JUMPDEST PUSH2 0xA0 PUSH2 0x115 CALLDATASIZE PUSH1 0x4 PUSH2 0x711 JUMP JUMPDEST PUSH2 0x21C JUMP JUMPDEST PUSH1 0x0 SLOAD PUSH2 0xC9 SWAP1 PUSH1 0x1 PUSH1 0x1 PUSH1 0xA0 SHL SUB AND DUP2 JUMP JUMPDEST PUSH2 0xC9 PUSH2 0x13B CALLDATASIZE PUSH1 0x4 PUSH2 0x733 JUMP JUMPDEST PUSH2 0x292 JUMP JUMPDEST PUSH2 0xA0 PUSH2 0x14E CALLDATASIZE PUSH1 0x4 PUSH2 0x711 JUMP JUMPDEST PUSH2 0x537 JUMP JUMPDEST PUSH2 0xC9 PUSH2 0x161 CALLDATASIZE PUSH1 0x4 PUSH2 0x791 JUMP JUMPDEST PUSH2 0x5AB JUMP JUMPDEST PUSH1 0x60 PUSH1 0x2 DUP1 SLOAD DUP1 PUSH1 0x20 MUL PUSH1 0x20 ADD PUSH1 0x40 MLOAD SWAP1 DUP2 ADD PUSH1 0x40 MSTORE DUP1 SWAP3 SWAP2 SWAP1 DUP2 DUP2 MSTORE PUSH1 0x20 ADD DUP3 DUP1 SLOAD DUP1 ISZERO PUSH2 0x1BE JUMPI PUSH1 0x20 MUL DUP3 ADD SWAP2 SWAP1 PUSH1 0x0 MSTORE PUSH1 0x20 PUSH1 0x0 KECCAK256 SWAP1 JUMPDEST DUP2 SLOAD PUSH1 0x1 PUSH1 0x1 PUSH1 0xA0 SHL SUB AND DUP2 MSTORE PUSH1 0x1 SWAP1 SWAP2 ADD SWAP1 PUSH1 0x20 ADD DUP1 DUP4 GT PUSH2 0x1A0 JUMPI JUMPDEST POP POP POP POP POP SWAP1 POP SWAP1 JUMP JUMPDEST PUSH1 0x3 PUSH1 0x20 MSTORE DUP2 PUSH1 0x0 MSTORE PUSH1 0x40 PUSH1 0x0 KECCAK256 DUP2 DUP2 SLOAD DUP2 LT PUSH2 0x1E4 JUMPI PUSH1 0x0 DUP1 REVERT JUMPDEST PUSH1 0x0 SWAP2 DUP3 MSTORE PUSH1 0x20 SWAP1 SWAP2 KECCAK256 ADD SLOAD PUSH1 0x1 PUSH1 0x1 PUSH1 0xA0 SHL SUB AND SWAP2 POP DUP3 SWAP1 POP JUMP JUMPDEST PUSH1 0x4 PUSH1 0x20 MSTORE DUP2 PUSH1 0x0 MSTORE PUSH1 0x40 PUSH1 0x0 KECCAK256 DUP2 DUP2 SLOAD DUP2 LT PUSH2 0x1E4 JUMPI PUSH1 0x0 DUP1 REVERT JUMPDEST PUSH1 0x1 PUSH1 0x1 PUSH1 0xA0 SHL SUB DUP2 AND PUSH1 0x0 SWAP1 DUP2 MSTORE PUSH1 0x3 PUSH1 0x20 SWAP1 DUP2 MSTORE PUSH1 0x40 SWAP2 DUP3 SWAP1 KECCAK256 DUP1 SLOAD DUP4 MLOAD DUP2 DUP5 MUL DUP2 ADD DUP5 ADD SWAP1 SWAP5 MSTORE DUP1 DUP5 MSTORE PUSH1 0x60 SWAP4 SWAP3 DUP4 ADD DUP3 DUP3 DUP1 ISZERO PUSH2 0x286 JUMPI PUSH1 0x20 MUL DUP3 ADD SWAP2 SWAP1 PUSH1 0x0 MSTORE PUSH1 0x20 PUSH1 0x0 KECCAK256 SWAP1 JUMPDEST DUP2 SLOAD PUSH1 0x1 PUSH1 0x1 PUSH1 0xA0 SHL SUB AND DUP2 MSTORE PUSH1 0x1 SWAP1 SWAP2 ADD SWAP1 PUSH1 0x20 ADD DUP1 DUP4 GT PUSH2 0x268 JUMPI JUMPDEST POP POP POP POP POP SWAP1 POP SWAP2 SWAP1 POP JUMP JUMPDEST PUSH1 0x1 SLOAD PUSH1 0x0 SWAP1 DUP2 SWAP1 PUSH2 0x2AC SWAP1 PUSH1 0x1 PUSH1 0x1 PUSH1 0xA0 SHL SUB AND PUSH2 0x5D5 JUMP JUMPDEST PUSH1 0x40 MLOAD PUSH1 0x1 PUSH1 0x1 PUSH1 0xA0 SHL SUB DUP3 AND DUP2 MSTORE SWAP1 SWAP2 POP PUSH32 0xBE2F3D28FDEB5839123D65FD47EC2F5915C715D2B527B9E229123706FDECFC85 SWAP1 PUSH1 0x20 ADD PUSH1 0x40 MLOAD DUP1 SWAP2 SUB SWAP1 LOG1 PUSH1 0x40 MLOAD PUSH1 0x1 PUSH1 0x1 PUSH1 0xA0 SHL SUB DUP11 DUP2 AND PUSH1 0x24 DUP4 ADD MSTORE DUP10 DUP2 AND PUSH1 0x44 DUP4 ADD MSTORE PUSH1 0x64 DUP3 ADD DUP10 SWAP1 MSTORE PUSH1 0x84 DUP3 ADD DUP9 SWAP1 MSTORE PUSH1 0xA4 DUP3 ADD DUP8 SWAP1 MSTORE PUSH1 0xC4 DUP3 ADD DUP7 SWAP1 MSTORE PUSH1 0xE4 DUP3 ADD DUP6 SWAP1 MSTORE PUSH1 0x0 SWAP2 SWAP1 DUP4 AND SWAP1 PUSH2 0x104 ADD PUSH1 0x40 DUP1 MLOAD PUSH1 0x1F NOT DUP2 DUP5 SUB ADD DUP2 MSTORE SWAP2 DUP2 MSTORE PUSH1 0x20 DUP3 ADD DUP1 MLOAD PUSH1 0x1 PUSH1 0x1 PUSH1 0xE0 SHL SUB AND PUSH4 0x76DFA561 PUSH1 0xE1 SHL OR SWAP1 MSTORE MLOAD PUSH2 0x369 SWAP2 SWAP1 PUSH2 0x7AA JUMP JUMPDEST PUSH1 0x0 PUSH1 0x40 MLOAD DUP1 DUP4 SUB DUP2 PUSH1 0x0 DUP7 GAS CALL SWAP2 POP POP RETURNDATASIZE DUP1 PUSH1 0x0 DUP2 EQ PUSH2 0x3A6 JUMPI PUSH1 0x40 MLOAD SWAP2 POP PUSH1 0x1F NOT PUSH1 0x3F RETURNDATASIZE ADD AND DUP3 ADD PUSH1 0x40 MSTORE RETURNDATASIZE DUP3 MSTORE RETURNDATASIZE PUSH1 0x0 PUSH1 0x20 DUP5 ADD RETURNDATACOPY PUSH2 0x3AB JUMP JUMPDEST PUSH1 0x60 SWAP2 POP JUMPDEST POP POP SWAP1 POP PUSH32 0x97E57290C969D9BDD8AE33778C99DE10BB998DC1E1F9173567B40720BE817902 DUP2 PUSH1 0x40 MLOAD PUSH2 0x3E2 SWAP2 ISZERO ISZERO DUP2 MSTORE PUSH1 0x20 ADD SWAP1 JUMP JUMPDEST PUSH1 0x40 MLOAD DUP1 SWAP2 SUB SWAP1 LOG1 DUP1 PUSH2 0x434 JUMPI PUSH1 0x40 MLOAD PUSH3 0x461BCD PUSH1 0xE5 SHL DUP2 MSTORE PUSH1 0x20 PUSH1 0x4 DUP3 ADD MSTORE PUSH1 0x15 PUSH1 0x24 DUP3 ADD MSTORE PUSH21 0x125B9A5D1A585B1A5E985D1A5BDB8819985A5B1959 PUSH1 0x5A SHL PUSH1 0x44 DUP3 ADD MSTORE PUSH1 0x64 ADD JUMPDEST PUSH1 0x40 MLOAD DUP1 SWAP2 SUB SWAP1 REVERT JUMPDEST PUSH1 0x2 DUP1 SLOAD PUSH1 0x1 DUP2 DUP2 ADD SWAP1 SWAP3 SSTORE PUSH32 0x405787FA12A823E0F2B7631CC41B3BA8828B3321CA811111FA75CD3AA3BB5ACE ADD DUP1 SLOAD PUSH1 0x1 PUSH1 0x1 PUSH1 0xA0 SHL SUB DUP1 DUP7 AND PUSH1 0x1 PUSH1 0x1 PUSH1 0xA0 SHL SUB NOT SWAP3 DUP4 AND DUP2 OR SWAP1 SWAP4 SSTORE DUP14 DUP2 AND PUSH1 0x0 SWAP1 DUP2 MSTORE PUSH1 0x3 PUSH1 0x20 SWAP1 DUP2 MSTORE PUSH1 0x40 DUP1 DUP4 KECCAK256 DUP1 SLOAD DUP1 DUP10 ADD DUP3 SSTORE SWAP1 DUP5 MSTORE DUP3 DUP5 KECCAK256 ADD DUP1 SLOAD DUP7 AND DUP8 OR SWAP1 SSTORE SWAP3 DUP16 AND DUP3 MSTORE PUSH1 0x4 DUP2 MSTORE DUP3 DUP3 KECCAK256 DUP1 SLOAD SWAP7 DUP8 ADD DUP2 SSTORE DUP3 MSTORE SWAP1 KECCAK256 SWAP1 SWAP4 ADD DUP1 SLOAD SWAP1 SWAP2 AND SWAP1 SWAP2 OR SWAP1 SSTORE MLOAD DUP3 SWAP1 PUSH32 0x1202C61D7D89C76BA1493B085733EDE04E071A2A76BB0FBAE1345F128FE8B29D SWAP1 PUSH2 0x520 SWAP1 DUP4 SWAP1 DUP15 SWAP1 DUP15 SWAP1 PUSH1 0x1 PUSH1 0x1 PUSH1 0xA0 SHL SUB SWAP4 DUP5 AND DUP2 MSTORE SWAP2 DUP4 AND PUSH1 0x20 DUP4 ADD MSTORE SWAP1 SWAP2 AND PUSH1 0x40 DUP3 ADD MSTORE PUSH1 0x60 ADD SWAP1 JUMP JUMPDEST PUSH1 0x40 MLOAD DUP1 SWAP2 SUB SWAP1 LOG1 POP SWAP1 SWAP10 SWAP9 POP POP POP POP POP POP POP POP POP JUMP JUMPDEST PUSH1 0x1 PUSH1 0x1 PUSH1 0xA0 SHL SUB DUP2 AND PUSH1 0x0 SWAP1 DUP2 MSTORE PUSH1 0x4 PUSH1 0x20 SWAP1 DUP2 MSTORE PUSH1 0x40 SWAP2 DUP3 SWAP1 KECCAK256 DUP1 SLOAD DUP4 MLOAD DUP2 DUP5 MUL DUP2 ADD DUP5 ADD SWAP1 SWAP5 MSTORE DUP1 DUP5 MSTORE PUSH1 0x60 SWAP4 SWAP3 DUP4 ADD DUP3 DUP3 DUP1 ISZERO PUSH2 0x286 JUMPI PUSH1 0x20 MUL DUP3 ADD SWAP2 SWAP1 PUSH1 0x0 MSTORE PUSH1 0x20 PUSH1 0x0 KECCAK256 SWAP1 DUP2 SLOAD PUSH1 0x1 PUSH1 0x1 PUSH1 0xA0 SHL SUB AND DUP2 MSTORE PUSH1 0x1 SWAP1 SWAP2 ADD SWAP1 PUSH1 0x20 ADD DUP1 DUP4 GT PUSH2 0x268 JUMPI POP POP POP POP POP SWAP1 POP SWAP2 SWAP1 POP JUMP JUMPDEST PUSH1 0x2 DUP2 DUP2 SLOAD DUP2 LT PUSH2 0x5BB JUMPI PUSH1 0x0 DUP1 REVERT JUMPDEST PUSH1 0x0 SWAP2 DUP3 MSTORE PUSH1 0x20 SWAP1 SWAP2 KECCAK256 ADD SLOAD PUSH1 0x1 PUSH1 0x1 PUSH1 0xA0 SHL SUB AND SWAP1 POP DUP2 JUMP JUMPDEST PUSH1 0x0 PUSH2 0x5E2 DUP3 PUSH1 0x0 PUSH2 0x5E8 JUMP JUMPDEST SWAP3 SWAP2 POP POP JUMP JUMPDEST PUSH1 0x0 DUP2 SELFBALANCE LT ISZERO PUSH2 0x614 JUMPI PUSH1 0x40 MLOAD PUSH4 0xCF479181 PUSH1 0xE0 SHL DUP2 MSTORE SELFBALANCE PUSH1 0x4 DUP3 ADD MSTORE PUSH1 0x24 DUP2 ADD DUP4 SWAP1 MSTORE PUSH1 0x44 ADD PUSH2 0x42B JUMP JUMPDEST PUSH23 0x3D602D80600A3D3981F3363D3D373D3D3D363D73000000 DUP4 PUSH1 0x60 SHL PUSH1 0xE8 SHR OR PUSH1 0x0 MSTORE PUSH15 0x5AF43D82803E903D91602B57FD5BF3 DUP4 PUSH1 0x78 SHL OR PUSH1 0x20 MSTORE PUSH1 0x37 PUSH1 0x9 DUP4 CREATE SWAP1 POP PUSH1 0x1 PUSH1 0x1 PUSH1 0xA0 SHL SUB DUP2 AND PUSH2 0x5E2 JUMPI PUSH1 0x40 MLOAD PUSH4 0xB06EBF3D PUSH1 0xE0 SHL DUP2 MSTORE PUSH1 0x4 ADD PUSH1 0x40 MLOAD DUP1 SWAP2 SUB SWAP1 REVERT JUMPDEST PUSH1 0x20 DUP1 DUP3 MSTORE DUP3 MLOAD DUP3 DUP3 ADD DUP2 SWAP1 MSTORE PUSH1 0x0 SWAP2 SWAP1 DUP5 DUP3 ADD SWAP1 PUSH1 0x40 DUP6 ADD SWAP1 DUP5 JUMPDEST DUP2 DUP2 LT ISZERO PUSH2 0x6BF JUMPI DUP4 MLOAD PUSH1 0x1 PUSH1 0x1 PUSH1 0xA0 SHL SUB AND DUP4 MSTORE SWAP3 DUP5 ADD SWAP3 SWAP2 DUP5 ADD SWAP2 PUSH1 0x1 ADD PUSH2 0x69A JUMP JUMPDEST POP SWAP1 SWAP7 SWAP6 POP POP POP POP POP POP JUMP JUMPDEST DUP1 CALLDATALOAD PUSH1 0x1 PUSH1 0x1 PUSH1 0xA0 SHL SUB DUP2 AND DUP2 EQ PUSH2 0x6E2 JUMPI PUSH1 0x0 DUP1 REVERT JUMPDEST SWAP2 SWAP1 POP JUMP JUMPDEST PUSH1 0x0 DUP1 PUSH1 0x40 DUP4 DUP6 SUB SLT ISZERO PUSH2 0x6FA JUMPI PUSH1 0x0 DUP1 REVERT JUMPDEST PUSH2 0x703 DUP4 PUSH2 0x6CB JUMP JUMPDEST SWAP5 PUSH1 0x20 SWAP4 SWAP1 SWAP4 ADD CALLDATALOAD SWAP4 POP POP POP JUMP JUMPDEST PUSH1 0x0 PUSH1 0x20 DUP3 DUP5 SUB SLT ISZERO PUSH2 0x723 JUMPI PUSH1 0x0 DUP1 REVERT JUMPDEST PUSH2 0x72C DUP3 PUSH2 0x6CB JUMP JUMPDEST SWAP4 SWAP3 POP POP POP JUMP JUMPDEST PUSH1 0x0 DUP1 PUSH1 0x0 DUP1 PUSH1 0x0 DUP1 PUSH1 0x0 PUSH1 0xE0 DUP9 DUP11 SUB SLT ISZERO PUSH2 0x74E JUMPI PUSH1 0x0 DUP1 REVERT JUMPDEST PUSH2 0x757 DUP9 PUSH2 0x6CB JUMP JUMPDEST SWAP7 POP PUSH2 0x765 PUSH1 0x20 DUP10 ADD PUSH2 0x6CB JUMP JUMPDEST SWAP7 SWAP10 SWAP7 SWAP9 POP POP POP POP PUSH1 0x40 DUP6 ADD CALLDATALOAD SWAP5 PUSH1 0x60 DUP2 ADD CALLDATALOAD SWAP5 PUSH1 0x80 DUP3 ADD CALLDATALOAD SWAP5 POP PUSH1 0xA0 DUP3 ADD CALLDATALOAD SWAP4 POP PUSH1 0xC0 SWAP1 SWAP2 ADD CALLDATALOAD SWAP2 POP JUMP JUMPDEST PUSH1 0x0 PUSH1 0x20 DUP3 DUP5 SUB SLT ISZERO PUSH2 0x7A3 JUMPI PUSH1 0x0 DUP1 REVERT JUMPDEST POP CALLDATALOAD SWAP2 SWAP1 POP JUMP JUMPDEST PUSH1 0x0 DUP3 MLOAD PUSH1 0x0 JUMPDEST DUP2 DUP2 LT ISZERO PUSH2 0x7CB JUMPI PUSH1 0x20 DUP2 DUP7 ADD DUP2 ADD MLOAD DUP6 DUP4 ADD MSTORE ADD PUSH2 0x7B1 JUMP JUMPDEST POP PUSH1 0x0 SWAP3 ADD SWAP2 DUP3 MSTORE POP SWAP2 SWAP1 POP JUMP INVALID LOG2 PUSH5 0x6970667358 0x22 SLT KECCAK256 PUSH20 0xD34EFB298B8AD795CE1B3D83B0ECA96A6311F4F4 PUSH19 0x9A40BAAF5B252751F78E64736F6C6343000814 STOP CALLER "},"methodIdentifiers":{"allContracts(uint256)":"e54e26b9","contractsByCompany(address,uint256)":"5797047c","contractsByRenter(address,uint256)":"3ef6f90e","createRentContract(address,address,uint256,uint256,uint256,uint256,uint256)":"b16b26b8","getAllContracts()":"18d3ce96","getContractsByCompany(address)":"b6f50f9b","getContractsByRenter(address)":"75b1d0e3","implementation()":"5c60da1b","owner()":"8da5cb5b"}}}}}