{"contracts/RentContract.sol":{"RentContract":{"abi":[{"inputs":[],"stateMutability":"nonpayable","type":"constructor"},{"inputs":[],"name":"company","outputs":[{"internalType":"address","name":"","type":"address"}],"stateMutability":"view","type":"function"},{"inputs":[],"name":"deposit","outputs":[{"internalType":"uint256","name":"","type":"uint256"}],"stateMutability":"view","type":"function"},{"inputs":[],"name":"endTime","outputs":[{"internalType":"uint256","name":"","type":"uint256"}],"stateMutability":"view","type":"function"},{"inputs":[],"name":"factory","outputs":[{"internalType":"address","name":"","type":"address"}],"stateMutability":"view","type":"function"},{"inputs":[{"internalType":"address","name":"_renter","type":"address"},{"internalType":"address","name":"_company","type":"address"},{"internalType":"uint256","name":"_deposit","type":"uint256"},{"internalType":"uint256","name":"_rentAmount","type":"uint256"},{"internalType":"uint256","name":"_startTime","type":"uint256"},{"internalType":"uint256","name":"_endTime","type":"uint256"},{"internalType":"uint256","name":"_unlockDelayHours","type":"uint256"}],"name":"initialize","outputs":[],"stateMutability":"payable","type":"function"},{"inputs":[],"name":"initialized","outputs":[{"internalType":"bool","name":"","type":"bool"}],"stateMutability":"view","type":"function"},{"inputs":[],"name":"rentAmount","outputs":[{"internalType":"uint256","name":"","type":"uint256"}],"stateMutability":"view","type":"function"},{"inputs":[],"name":"renter","outputs":[{"internalType":"address","name":"","type":"address"}],"stateMutability":"view","type":"function"},{"inputs":[],"name":"startTime","outputs":[{"internalType":"uint256","name":"","type":"uint256"}],"stateMutability":"view","type":"function"},{"inputs":[],"name":"unlockTime","outputs":[{"internalType":"uint256","name":"","type":"uint256"}],"stateMutability":"view","type":"function"}],"evm":{"bytecode":{"linkReferences":{},"object":"608060405234801561001057600080fd5b5060078054610100600160a81b03191633610100021790556103ea806100376000396000f3fe6080604052600436106100915760003560e01c806378e979251161005957806378e9792514610157578063c45a01551461016d578063d0e30db014610192578063edbf4ac2146101a8578063f8ef1e13146101bd57600080fd5b8063158ef93e14610096578063251c1aa3146100c55780632e88ab0b146100e95780633197cbb6146101215780636904c94d14610137575b600080fd5b3480156100a257600080fd5b506007546100b09060ff1681565b60405190151581526020015b60405180910390f35b3480156100d157600080fd5b506100db60065481565b6040519081526020016100bc565b3480156100f557600080fd5b50600054610109906001600160a01b031681565b6040516001600160a01b0390911681526020016100bc565b34801561012d57600080fd5b506100db60055481565b34801561014357600080fd5b50600154610109906001600160a01b031681565b34801561016357600080fd5b506100db60045481565b34801561017957600080fd5b506007546101099061010090046001600160a01b031681565b34801561019e57600080fd5b506100db60025481565b6101bb6101b6366004610310565b6101d3565b005b3480156101c957600080fd5b506100db60035481565b60075460ff16156102215760405162461bcd60e51b8152602060048201526013602482015272105b1c9958591e481a5b9a5d1a585b1a5e9959606a1b60448201526064015b60405180910390fd5b6007805460ff19166001908117909155600080546001600160a01b03808b166001600160a01b03199283161783558354908a1691161790915560028690556003859055600484905560058390558161027a57600661027c565b815b905061028a81610e10610384565b60055461029791906103a1565b6006556003546002546102aa91906103a1565b34146102ea5760405162461bcd60e51b815260206004820152600f60248201526e496e636f72726563742076616c756560881b6044820152606401610218565b5050505050505050565b80356001600160a01b038116811461030b57600080fd5b919050565b600080600080600080600060e0888a03121561032b57600080fd5b610334886102f4565b9650610342602089016102f4565b96999698505050506040850135946060810135946080820135945060a0820135935060c0909101359150565b634e487b7160e01b600052601160045260246000fd5b808202811582820484141761039b5761039b61036e565b92915050565b8082018082111561039b5761039b61036e56fea264697066735822122019fb4ace274f10667597969ac756ad4436114301937bf31d0ecadc093407342e64736f6c63430008140033","opcodes":"PUSH1 0x80 PUSH1 0x40 MSTORE CALLVALUE DUP1 ISZERO PUSH2 0x10 JUMPI PUSH1 0x0 DUP1 REVERT JUMPDEST POP PUSH1 0x7 DUP1 SLOAD PUSH2 0x100 PUSH1 0x1 PUSH1 0xA8 SHL SUB NOT AND CALLER PUSH2 0x100 MUL OR SWAP1 SSTORE PUSH2 0x3EA DUP1 PUSH2 0x37 PUSH1 0x0 CODECOPY PUSH1 0x0 RETURN INVALID PUSH1 0x80 PUSH1 0x40 MSTORE PUSH1 0x4 CALLDATASIZE LT PUSH2 0x91 JUMPI PUSH1 0x0 CALLDATALOAD PUSH1 0xE0 SHR DUP1 PUSH4 0x78E97925 GT PUSH2 0x59 JUMPI DUP1 PUSH4 0x78E97925 EQ PUSH2 0x157 JUMPI DUP1 PUSH4 0xC45A0155 EQ PUSH2 0x16D JUMPI DUP1 PUSH4 0xD0E30DB0 EQ PUSH2 0x192 JUMPI DUP1 PUSH4 0xEDBF4AC2 EQ PUSH2 0x1A8 JUMPI DUP1 PUSH4 0xF8EF1E13 EQ PUSH2 0x1BD JUMPI PUSH1 0x0 DUP1 REVERT JUMPDEST DUP1 PUSH4 0x158EF93E EQ PUSH2 0x96 JUMPI DUP1 PUSH4 0x251C1AA3 EQ PUSH2 0xC5 JUMPI DUP1 PUSH4 0x2E88AB0B EQ PUSH2 0xE9 JUMPI DUP1 PUSH4 0x3197CBB6 EQ PUSH2 0x121 JUMPI DUP1 PUSH4 0x6904C94D EQ PUSH2 0x137 JUMPI JUMPDEST PUSH1 0x0 DUP1 REVERT JUMPDEST CALLVALUE DUP1 ISZERO PUSH2 0xA2 JUMPI PUSH1 0x0 DUP1 REVERT JUMPDEST POP PUSH1 0x7 SLOAD PUSH2 0xB0 SWAP1 PUSH1 0xFF AND DUP2 JUMP JUMPDEST PUSH1 0x40 MLOAD SWAP1 ISZERO ISZERO DUP2 MSTORE PUSH1 0x20 ADD JUMPDEST PUSH1 0x40 MLOAD DUP1 SWAP2 SUB SWAP1 RETURN JUMPDEST CALLVALUE DUP1 ISZERO PUSH2 0xD1 JUMPI PUSH1 0x0 DUP1 REVERT JUMPDEST POP PUSH2 0xDB PUSH1 0x6 SLOAD DUP2 JUMP JUMPDEST PUSH1 0x40 MLOAD SWAP1 DUP2 MSTORE PUSH1 0x20 ADD PUSH2 0xBC JUMP JUMPDEST CALLVALUE DUP1 ISZERO PUSH2 0xF5 JUMPI PUSH1 0x0 DUP1 REVERT JUMPDEST POP PUSH1 0x0 SLOAD PUSH2 0x109 SWAP1 PUSH1 0x1 PUSH1 0x1 PUSH1 0xA0 SHL SUB AND DUP2 JUMP JUMPDEST PUSH1 0x40 MLOAD PUSH1 0x1 PUSH1 0x1 PUSH1 0xA0 SHL SUB SWAP1 SWAP2 AND DUP2 MSTORE PUSH1 0x20 ADD PUSH2 0xBC JUMP JUMPDEST CALLVALUE DUP1 ISZERO PUSH2 0x12D JUMPI PUSH1 0x0 DUP1 REVERT JUMPDEST POP PUSH2 0xDB PUSH1 0x5 SLOAD DUP2 JUMP JUMPDEST CALLVALUE DUP1 ISZERO PUSH2 0x143 JUMPI PUSH1 0x0 DUP1 REVERT JUMPDEST POP PUSH1 0x1 SLOAD PUSH2 0x109 SWAP1 PUSH1 0x1 PUSH1 0x1 PUSH1 0xA0 SHL SUB AND DUP2 JUMP JUMPDEST CALLVALUE DUP1 ISZERO PUSH2 0x163 JUMPI PUSH1 0x0 DUP1 REVERT JUMPDEST POP PUSH2 0xDB PUSH1 0x4 SLOAD DUP2 JUMP JUMPDEST CALLVALUE DUP1 ISZERO PUSH2 0x179 JUMPI PUSH1 0x0 DUP1 REVERT JUMPDEST POP PUSH1 0x7 SLOAD PUSH2 0x109 SWAP1 PUSH2 0x100 SWAP1 DIV PUSH1 0x1 PUSH1 0x1 PUSH1 0xA0 SHL SUB AND DUP2 JUMP JUMPDEST CALLVALUE DUP1 ISZERO PUSH2 0x19E JUMPI PUSH1 0x0 DUP1 REVERT JUMPDEST POP PUSH2 0xDB PUSH1 0x2 SLOAD DUP2 JUMP JUMPDEST PUSH2 0x1BB PUSH2 0x1B6 CALLDATASIZE PUSH1 0x4 PUSH2 0x310 JUMP JUMPDEST PUSH2 0x1D3 JUMP JUMPDEST STOP JUMPDEST CALLVALUE DUP1 ISZERO PUSH2 0x1C9 JUMPI PUSH1 0x0 DUP1 REVERT JUMPDEST POP PUSH2 0xDB PUSH1 0x3 SLOAD DUP2 JUMP JUMPDEST PUSH1 0x7 SLOAD PUSH1 0xFF AND ISZERO PUSH2 0x221 JUMPI PUSH1 0x40 MLOAD PUSH3 0x461BCD PUSH1 0xE5 SHL DUP2 MSTORE PUSH1 0x20 PUSH1 0x4 DUP3 ADD MSTORE PUSH1 0x13 PUSH1 0x24 DUP3 ADD MSTORE PUSH19 0x105B1C9958591E481A5B9A5D1A585B1A5E9959 PUSH1 0x6A SHL PUSH1 0x44 DUP3 ADD MSTORE PUSH1 0x64 ADD JUMPDEST PUSH1 0x40 MLOAD DUP1 SWAP2 SUB SWAP1 REVERT JUMPDEST PUSH1 0x7 DUP1 SLOAD PUSH1 0xFF NOT AND PUSH1 0x1 SWAP1 DUP2 OR SWAP1 SWAP2 SSTORE PUSH1 0x0 DUP1 SLOAD PUSH1 0x1 PUSH1 0x1 PUSH1 0xA0 SHL SUB DUP1 DUP12 AND PUSH1 0x1 PUSH1 0x1 PUSH1 0xA0 SHL SUB NOT SWAP3 DUP4 AND OR DUP4 SSTORE DUP4 SLOAD SWAP1 DUP11 AND SWAP2 AND OR SWAP1 SWAP2 SSTORE PUSH1 0x2 DUP7 SWAP1 SSTORE PUSH1 0x3 DUP6 SWAP1 SSTORE PUSH1 0x4 DUP5 SWAP1 SSTORE PUSH1 0x5 DUP4 SWAP1 SSTORE DUP2 PUSH2 0x27A JUMPI PUSH1 0x6 PUSH2 0x27C JUMP JUMPDEST DUP2 JUMPDEST SWAP1 POP PUSH2 0x28A DUP2 PUSH2 0xE10 PUSH2 0x384 JUMP JUMPDEST PUSH1 0x5 SLOAD PUSH2 0x297 SWAP2 SWAP1 PUSH2 0x3A1 JUMP JUMPDEST PUSH1 0x6 SSTORE PUSH1 0x3 SLOAD PUSH1 0x2 SLOAD PUSH2 0x2AA SWAP2 SWAP1 PUSH2 0x3A1 JUMP JUMPDEST CALLVALUE EQ PUSH2 0x2EA JUMPI PUSH1 0x40 MLOAD PUSH3 0x461BCD PUSH1 0xE5 SHL DUP2 MSTORE PUSH1 0x20 PUSH1 0x4 DUP3 ADD MSTORE PUSH1 0xF PUSH1 0x24 DUP3 ADD MSTORE PUSH15 0x496E636F72726563742076616C7565 PUSH1 0x88 SHL PUSH1 0x44 DUP3 ADD MSTORE PUSH1 0x64 ADD PUSH2 0x218 JUMP JUMPDEST POP POP POP POP POP POP POP POP JUMP JUMPDEST DUP1 CALLDATALOAD PUSH1 0x1 PUSH1 0x1 PUSH1 0xA0 SHL SUB DUP2 AND DUP2 EQ PUSH2 0x30B JUMPI PUSH1 0x0 DUP1 REVERT JUMPDEST SWAP2 SWAP1 POP JUMP JUMPDEST PUSH1 0x0 DUP1 PUSH1 0x0 DUP1 PUSH1 0x0 DUP1 PUSH1 0x0 PUSH1 0xE0 DUP9 DUP11 SUB SLT ISZERO PUSH2 0x32B JUMPI PUSH1 0x0 DUP1 REVERT JUMPDEST PUSH2 0x334 DUP9 PUSH2 0x2F4 JUMP JUMPDEST SWAP7 POP PUSH2 0x342 PUSH1 0x20 DUP10 ADD PUSH2 0x2F4 JUMP JUMPDEST SWAP7 SWAP10 SWAP7 SWAP9 POP POP POP POP PUSH1 0x40 DUP6 ADD CALLDATALOAD SWAP5 PUSH1 0x60 DUP2 ADD CALLDATALOAD SWAP5 PUSH1 0x80 DUP3 ADD CALLDATALOAD SWAP5 POP PUSH1 0xA0 DUP3 ADD CALLDATALOAD SWAP4 POP PUSH1 0xC0 SWAP1 SWAP2 ADD CALLDATALOAD SWAP2 POP JUMP JUMPDEST PUSH4 0x4E487B71 PUSH1 0xE0 SHL PUSH1 0x0 MSTORE PUSH1 0x11 PUSH1 0x4 MSTORE PUSH1 0x24 PUSH1 0x0 REVERT JUMPDEST DUP1 DUP3 MUL DUP2 ISZERO DUP3 DUP3 DIV DUP5 EQ OR PUSH2 0x39B JUMPI PUSH2 0x39B PUSH2 0x36E JUMP JUMPDEST SWAP3 SWAP2 POP POP JUMP JUMPDEST DUP1 DUP3 ADD DUP1 DUP3 GT ISZERO PUSH2 0x39B JUMPI PUSH2 0x39B PUSH2 0x36E JUMP INVALID LOG2 PUSH5 0x6970667358 0x22 SLT KECCAK256 NOT 0xFB 0x4A 0xCE 0x27 0x4F LT PUSH7 0x7597969AC756AD PREVRANDAO CALLDATASIZE GT NUMBER ADD SWAP4 PUSH28 0xF31D0ECADC093407342E64736F6C6343000814003300000000000000 "},"methodIdentifiers":{"company()":"6904c94d","deposit()":"d0e30db0","endTime()":"3197cbb6","factory()":"c45a0155","initialize(address,address,uint256,uint256,uint256,uint256,uint256)":"edbf4ac2","initialized()":"158ef93e","rentAmount()":"f8ef1e13","renter()":"2e88ab0b","startTime()":"78e97925","unlockTime()":"251c1aa3"}}}}}