{
  "_format": "hh-sol-artifact-1",
  "contractName": "RentContract",
  "sourceName": "contracts/RentContract.sol",
  "abi": [
    {
      "inputs": [],
      "stateMutability": "nonpayable",
      "type": "constructor"
    },
    {
      "inputs": [],
      "name": "cancelRental",
      "outputs": [],
      "stateMutability": "nonpayable",
      "type": "function"
    },
    {
      "inputs": [],
      "name": "company",
      "outputs": [
        {
          "internalType": "address",
          "name": "",
          "type": "address"
        }
      ],
      "stateMutability": "view",
      "type": "function"
    },
    {
      "inputs": [],
      "name": "deposit",
      "outputs": [
        {
          "internalType": "uint256",
          "name": "",
          "type": "uint256"
        }
      ],
      "stateMutability": "view",
      "type": "function"
    },
    {
      "inputs": [],
      "name": "depositFrozen",
      "outputs": [
        {
          "internalType": "bool",
          "name": "",
          "type": "bool"
        }
      ],
      "stateMutability": "view",
      "type": "function"
    },
    {
      "inputs": [],
      "name": "depositFunds",
      "outputs": [],
      "stateMutability": "payable",
      "type": "function"
    },
    {
      "inputs": [],
      "name": "depositReturned",
      "outputs": [
        {
          "internalType": "bool",
          "name": "",
          "type": "bool"
        }
      ],
      "stateMutability": "view",
      "type": "function"
    },
    {
      "inputs": [],
      "name": "endTime",
      "outputs": [
        {
          "internalType": "uint256",
          "name": "",
          "type": "uint256"
        }
      ],
      "stateMutability": "view",
      "type": "function"
    },
    {
      "inputs": [],
      "name": "finalizeRental",
      "outputs": [],
      "stateMutability": "nonpayable",
      "type": "function"
    },
    {
      "inputs": [
        {
          "internalType": "uint256",
          "name": "usedDays",
          "type": "uint256"
        },
        {
          "internalType": "uint256",
          "name": "pricePerDay",
          "type": "uint256"
        }
      ],
      "name": "finishRentalEarly",
      "outputs": [],
      "stateMutability": "nonpayable",
      "type": "function"
    },
    {
      "inputs": [],
      "name": "freezeDeposit",
      "outputs": [],
      "stateMutability": "nonpayable",
      "type": "function"
    },
    {
      "inputs": [],
      "name": "fundsDeposited",
      "outputs": [
        {
          "internalType": "bool",
          "name": "",
          "type": "bool"
        }
      ],
      "stateMutability": "view",
      "type": "function"
    },
    {
      "inputs": [
        {
          "internalType": "address",
          "name": "_renter",
          "type": "address"
        },
        {
          "internalType": "address",
          "name": "_company",
          "type": "address"
        },
        {
          "internalType": "uint256",
          "name": "_deposit",
          "type": "uint256"
        },
        {
          "internalType": "uint256",
          "name": "_rentAmount",
          "type": "uint256"
        },
        {
          "internalType": "uint256",
          "name": "_startTime",
          "type": "uint256"
        },
        {
          "internalType": "uint256",
          "name": "_endTime",
          "type": "uint256"
        },
        {
          "internalType": "uint256",
          "name": "_unlockDelayHours",
          "type": "uint256"
        }
      ],
      "name": "initialize",
      "outputs": [],
      "stateMutability": "nonpayable",
      "type": "function"
    },
    {
      "inputs": [],
      "name": "initialized",
      "outputs": [
        {
          "internalType": "bool",
          "name": "",
          "type": "bool"
        }
      ],
      "stateMutability": "view",
      "type": "function"
    },
    {
      "inputs": [],
      "name": "markRentalStarted",
      "outputs": [],
      "stateMutability": "nonpayable",
      "type": "function"
    },
    {
      "inputs": [
        {
          "internalType": "uint256",
          "name": "amountToCompany",
          "type": "uint256"
        }
      ],
      "name": "releaseDeposit",
      "outputs": [],
      "stateMutability": "nonpayable",
      "type": "function"
    },
    {
      "inputs": [],
      "name": "rentAmount",
      "outputs": [
        {
          "internalType": "uint256",
          "name": "",
          "type": "uint256"
        }
      ],
      "stateMutability": "view",
      "type": "function"
    },
    {
      "inputs": [],
      "name": "rentalCompleted",
      "outputs": [
        {
          "internalType": "bool",
          "name": "",
          "type": "bool"
        }
      ],
      "stateMutability": "view",
      "type": "function"
    },
    {
      "inputs": [],
      "name": "rentalStarted",
      "outputs": [
        {
          "internalType": "bool",
          "name": "",
          "type": "bool"
        }
      ],
      "stateMutability": "view",
      "type": "function"
    },
    {
      "inputs": [],
      "name": "renter",
      "outputs": [
        {
          "internalType": "address",
          "name": "",
          "type": "address"
        }
      ],
      "stateMutability": "view",
      "type": "function"
    },
    {
      "inputs": [],
      "name": "returnDepositIfNoDispute",
      "outputs": [],
      "stateMutability": "nonpayable",
      "type": "function"
    },
    {
      "inputs": [],
      "name": "startTime",
      "outputs": [
        {
          "internalType": "uint256",
          "name": "",
          "type": "uint256"
        }
      ],
      "stateMutability": "view",
      "type": "function"
    },
    {
      "inputs": [],
      "name": "unlockTime",
      "outputs": [
        {
          "internalType": "uint256",
          "name": "",
          "type": "uint256"
        }
      ],
      "stateMutability": "view",
      "type": "function"
    }
  ],
  "bytecode": "0x608060405234801561001057600080fd5b506007805460ff60281b19169055610f258061002d6000396000f3fe6080604052600436106101355760003560e01c806378e97925116100ab578063cacd17151161006f578063cacd17151461031d578063d0e30db01461033f578063e2b209b714610355578063e2c41dbc14610375578063edbf4ac21461037d578063f8ef1e131461039d57600080fd5b806378e97925146102985780637fc2a9b9146102ae578063856055a9146102c8578063a0f109c5146102e8578063c2fa75651461030857600080fd5b80633197cbb6116100fd5780633197cbb61461020457806350daf7c91461021a57806355faf9ae1461022f57806358f293341461024e57806364d3d136146102635780636904c94d1461027857600080fd5b80630c5b3eb11461013a578063158ef93e146101705780631a241bd814610191578063251c1aa3146101a85780632e88ab0b146101cc575b600080fd5b34801561014657600080fd5b5060075461015b906301000000900460ff1681565b60405190151581526020015b60405180910390f35b34801561017c57600080fd5b5060075461015b90600160281b900460ff1681565b34801561019d57600080fd5b506101a66103b3565b005b3480156101b457600080fd5b506101be60065481565b604051908152602001610167565b3480156101d857600080fd5b506000546101ec906001600160a01b031681565b6040516001600160a01b039091168152602001610167565b34801561021057600080fd5b506101be60055481565b34801561022657600080fd5b506101a6610483565b34801561023b57600080fd5b5060075461015b90610100900460ff1681565b34801561025a57600080fd5b506101a66105f7565b34801561026f57600080fd5b506101a6610690565b34801561028457600080fd5b506001546101ec906001600160a01b031681565b3480156102a457600080fd5b506101be60045481565b3480156102ba57600080fd5b5060075461015b9060ff1681565b3480156102d457600080fd5b5060075461015b9062010000900460ff1681565b3480156102f457600080fd5b506101a6610303366004610d96565b6107eb565b34801561031457600080fd5b506101a661095a565b34801561032957600080fd5b5060075461015b90640100000000900460ff1681565b34801561034b57600080fd5b506101be60025481565b34801561036157600080fd5b506101a6610370366004610daf565b610a25565b6101a6610b93565b34801561038957600080fd5b506101a6610398366004610ded565b610ccb565b3480156103a957600080fd5b506101be60035481565b6001546001600160a01b031633146103e65760405162461bcd60e51b81526004016103dd90610e4b565b60405180910390fd5b6004544210156104245760405162461bcd60e51b8152602060048201526009602482015268546f6f206561726c7960b81b60448201526064016103dd565b600754640100000000900460ff166104745760405162461bcd60e51b8152602060048201526013602482015272119d5b991cc81b9bdd0819195c1bdcda5d1959606a1b60448201526064016103dd565b6007805460ff19166001179055565b600754610100900460ff166104d15760405162461bcd60e51b815260206004820152601460248201527314995b9d185b081b9bdd0818dbdb5c1b195d195960621b60448201526064016103dd565b6007546301000000900460ff161561051e5760405162461bcd60e51b815260206004820152601060248201526f105b1c9958591e481c995d1d5c9b995960821b60448201526064016103dd565b60075462010000900460ff16156105685760405162461bcd60e51b815260206004820152600e60248201526d2232b837b9b4ba10333937bd32b760911b60448201526064016103dd565b6006544210156105a65760405162461bcd60e51b8152602060048201526009602482015268546f6f206561726c7960b81b60448201526064016103dd565b6007805463ff00000019166301000000179055600080546002546040516001600160a01b039092169281156108fc029290818181858888f193505050501580156105f4573d6000803e3d6000fd5b50565b6001546001600160a01b031633146106215760405162461bcd60e51b81526004016103dd90610e4b565b600754610100900460ff16801561064257506007546301000000900460ff16155b61067d5760405162461bcd60e51b815260206004820152600c60248201526b4e6f7420656c696769626c6560a01b60448201526064016103dd565b6007805462ff0000191662010000179055565b6000546001600160a01b031633146106ba5760405162461bcd60e51b81526004016103dd90610e71565b60045442106107045760405162461bcd60e51b815260206004820152601660248201527514995b9d185b08185b1c9958591e481cdd185c9d195960521b60448201526064016103dd565b60075460ff16156107495760405162461bcd60e51b815260206004820152600f60248201526e105b1c9958591e481cdd185c9d1959608a1b60448201526064016103dd565b600754640100000000900460ff1661078e5760405162461bcd60e51b81526020600482015260086024820152674e6f2066756e647360c01b60448201526064016103dd565b6007805463ff00ff00191663010001001790556000546003546002546001600160a01b03909216916108fc916107c391610eac565b6040518115909202916000818181858888f193505050501580156105f4573d6000803e3d6000fd5b6001546001600160a01b031633146108155760405162461bcd60e51b81526004016103dd90610e4b565b60075462010000900460ff16801561083757506007546301000000900460ff16155b6108715760405162461bcd60e51b815260206004820152600b60248201526a139bdd08185b1b1bddd95960aa1b60448201526064016103dd565b6007805463ff000000191663010000001790558015610903576002548111156108c75760405162461bcd60e51b81526020600482015260086024820152670a8dede40daeac6d60c31b60448201526064016103dd565b6001546040516001600160a01b039091169082156108fc029083906000818181858888f19350505050158015610901573d6000803e3d6000fd5b505b8060025411156105f4576000546002546001600160a01b03909116906108fc9061092e908490610ec5565b6040518115909202916000818181858888f19350505050158015610956573d6000803e3d6000fd5b5050565b6001546001600160a01b031633146109845760405162461bcd60e51b81526004016103dd90610e4b565b60075460ff16801561099e5750600754610100900460ff16155b6109da5760405162461bcd60e51b815260206004820152600d60248201526c496e76616c696420737461746560981b60448201526064016103dd565b6007805461ff0019166101001790556001546003546040516001600160a01b039092169181156108fc0291906000818181858888f193505050501580156105f4573d6000803e3d6000fd5b6000546001600160a01b03163314610a4f5760405162461bcd60e51b81526004016103dd90610e71565b60075460ff168015610a695750600754610100900460ff16155b610aa55760405162461bcd60e51b815260206004820152600d60248201526c496e76616c696420737461746560981b60448201526064016103dd565b6007805461ff0019166101001790556000610ac08284610ed8565b9050600354811115610aff5760405162461bcd60e51b81526020600482015260086024820152670a8dede40daeac6d60c31b60448201526064016103dd565b6001546040516001600160a01b039091169082156108fc029083906000818181858888f19350505050158015610b39573d6000803e3d6000fd5b50600081600354610b4a9190610ec5565b90508015610b8d57600080546040516001600160a01b039091169183156108fc02918491818181858888f19350505050158015610b8b573d6000803e3d6000fd5b505b50505050565b6000546001600160a01b03163314610bbd5760405162461bcd60e51b81526004016103dd90610e71565b600754600160281b900460ff16610c085760405162461bcd60e51b815260206004820152600f60248201526e139bdd081a5b9a5d1a585b1a5e9959608a1b60448201526064016103dd565b600754640100000000900460ff1615610c635760405162461bcd60e51b815260206004820152601760248201527f46756e647320616c7265616479206465706f736974656400000000000000000060448201526064016103dd565b600354600254610c739190610eac565b3414610cb45760405162461bcd60e51b815260206004820152601060248201526f125b98dbdc9c9958dd08185b5bdd5b9d60821b60448201526064016103dd565b6007805464ff000000001916640100000000179055565b600754600160281b900460ff1615610d1b5760405162461bcd60e51b8152602060048201526013602482015272105b1c9958591e481a5b9a5d1a585b1a5e9959606a1b60448201526064016103dd565b600080546001600160a01b03808a166001600160a01b03199283161790925560018054928916929091169190911790556002859055600384905560048390556005829055610d6b81610e10610ed8565b610d759083610eac565b60065550506007805465ff00000000001916600160281b1790555050505050565b600060208284031215610da857600080fd5b5035919050565b60008060408385031215610dc257600080fd5b50508035926020909101359150565b80356001600160a01b0381168114610de857600080fd5b919050565b600080600080600080600060e0888a031215610e0857600080fd5b610e1188610dd1565b9650610e1f60208901610dd1565b96999698505050506040850135946060810135946080820135945060a0820135935060c0909101359150565b6020808252600c908201526b4f6e6c7920636f6d70616e7960a01b604082015260600190565b6020808252600b908201526a27b7363c903932b73a32b960a91b604082015260600190565b634e487b7160e01b600052601160045260246000fd5b80820180821115610ebf57610ebf610e96565b92915050565b81810381811115610ebf57610ebf610e96565b8082028115828204841417610ebf57610ebf610e9656fea264697066735822122052eddbe74b4538dc4a3647ba52a539bb41ded9e7e3ab12bab2ca6aa43a777d3464736f6c63430008140033",
  "linkReferences": {},
  "deployedLinkReferences": {}
}